:060000000A128A11EC2F28
:100E14007E088A007F0882000A128A110A270A12B1
:100E24008A118000840A04087D0603190034FF0A2D
:100E34000319FE0A0E2F7F34403440347F3440348B
:100E440040347F3400347C34423442347C34423481
:100E540042347C34003418342434423442347E34F2
:100E64004234423400347C34423442347C34483496
:100E7400443442340034423466345A3442344234C2
:100E84004234423400343E340834083408340834DC
:100E9400483430340034F20072080F39F000043062
:100EA4000310F00DFF3E031D522F7208F1000430B1
:100EB4000310F10CFF3E031D5A2F71080F39700403
:100EC400F20072083339F00002300310F00DFF3ED7
:100ED400031D672F7208F10002300310F10CFF3E6E
:100EE400031D6F2F710833397004F20072085539ED
:100EF400F00001300310F00DFF3E031D7C2F72083B
:100F0400F1000310710C55397004F20072080800E6
:100F14008316031386018801831203138601880153
:100F2400F601F801F901F70108307702031C9B2F41
:100F34009C2F9D2FD12F0130F300770AA32F03108C
:100F4400F30DFF3E031DA12F7308831203138600C4
:100F54007608F30003300310F30DFF3E031DAD2F9D
:100F640020307307F40077087407F50075088400CF
:100F7400831300080A128A114D270A128A11FF3AB4
:100F84008312031388000B30F4006230F300F30B78
:100F9400C92FF40BC92F00000130F707962F013039
:100FA400F8070318F90A0030F907003079022830ED
:100FB40003197802031CDF2FE02F952F0130F60769
:100FC40006307602031CE72FE82F932F922F0A1284
:100FD4008A11002883135030FD000730FE001D30B5
:100FE400FF00203084000A128A110E270A128A1187
:0C0FF400F801F90183010A128A118A2F0A
:04400E00F22FFF3F4F
:00000001FF
