:100000000A128A11E92F00308A000408840A820744
:100010000034203420342034203442344534203419
:10002000483441345034503459342034003420346E
:1000300020342034203420344234453420345334A6
:08004000413444342034003443
:100852007E088A007F0882000A128A1129240A125D
:100862008A118000840A04087D0603190034FF0AF5
:100872000319FE0A2D2C073400341A342C343E346A
:1008820000340A340A3400340E3411340034003493
:1008920000340A340A34003411340E340034003483
:1008A200F701F801672C7708760784000A128A118B
:1008B20003200A128A110A128A11EE250A128A11DB
:1008C2000130F7070318F80A0030F80777087607AF
:1008D20084000A128A1103200A128A11003A031DA7
:1008E200732C742C542C0800F9000730F905790890
:1008F200F70002300310F70DFF3E031D7B2C03109F
:10090200770D403EF80004300310F80CFF3E031D43
:10091200852C78080F390A128A11B8240A128A1112
:100922007908F70002300310F70DFF3E031D942CE7
:100932000310770D403E0F390A128A11B8240A12A9
:100942008A11FA017A087607F70077088400831380
:1009520000080A128A11EE250A128A110130FA07DA
:1009620008307A02031CB62CB72CA32C0800F50021
:10097200831203133D08840083173E1C8313013046
:10098200F3003F080739013EC82C0310F30DFF3E68
:10099200031DC62C7308FF3A800575080A128A11D6
:1009A2002F270A128A11831203133D08840083172A
:1009B2003E1C83130130F3003F0CF400F40C740C62
:1009C2000739013EE62C0310F30DFF3E031DE42C14
:1009D200730880040B30F4006230F300F30BEF2C49
:1009E200F40BEF2C0000831203133D0884008317DD
:1009F2003E1C83130130F3003F0CF400F40C740C22
:100A02000739013E062D0310F30DFF3E031D042D91
:100A12007308FF3A80050800F90000300A128A11B3
:100A2200B8240A128A1101300A128A11B8240A1251
:100A32008A117908031D1E2D1F2D452D08300A121B
:100A42008A11B8240A128A1100300A128A11B824B3
:100A52000A128A110130F6000A128A1151240A126E
:100A62008A110C300A128A11B8240A128A1107302C
:100A72000A128A11B8240A128A1100300A128A1143
:100A8200EE250A128A116A2D08300A128A11B82438
:100A92000A128A1100300A128A11B8240A128A1123
:100AA2000F30F6000A128A1151240A128A110C30F0
:100AB2000A128A11B8240A128A1107300A128A11FC
:100AC200B8240A128A1101300A128A11EE250A127A
:100AD2008A1108003730840083120313200883131D
:100AE2008000840A21088000840A22088000840A87
:100AF20023088000840A24088000831603178801D3
:100B0200890183160313061481137630840083123D
:100B1200031337088000840A38088000840A3908E1
:100B22008000840A3A088000840A3B0880000A1286
:100B32008A1182260A128A112D30F60000300A121A
:100B42008A1175240A128A112530F60001300A1220
:100B52008A1175240A128A1183120313BC01003010
:100B62000A128A110D250A128A118312031306181A
:100B7200BB2DBC2DB62D343083120313B600F130D9
:100B8200B500B50BC22DB60BC22D83120313061886
:100B9200CB2DCC2DB62D3C080319D02DD22D0130F2
:100BA200D32D0030BC003C080A128A110D250A120E
:100BB2008A1183120313061CDF2DE02DDA2D343047
:100BC20083120313B600F130B500B50BE62DB60B58
:100BD200E62DB62D0A128A110028F500831203139E
:100BE2003D08840083173E1C83130130F3003F0845
:100BF2000739013EFE2D0310F30DFF3E031DFC2DB0
:100C0200730880047508F30004300310F30CFF3EF0
:100C1200031D062E73080F390A128A112F270A1292
:100C22008A11831203133D08840083173E1C831329
:100C32000130F3003F0CF400F40C740C0739013E50
:100C4200242E0310F30DFF3E031D222E7308800491
:100C52001A30F300F30B2B2E0000831203133D080E
:100C6200840083173E1C83130130F3003F0CF40011
:100C7200F40C740C0739013E402E0310F30DFF3EB5
:100C8200031D3E2E7308FF3A800575080F390A12BC
:100C92008A112F270A128A11831203133D08840036
:100CA20083173E1C83130130F3003F0CF400F40C55
:100CB200740C0739013E5F2E0310F30DFF3E031D36
:100CC2005D2E730880041A30F300F30B662E0000C9
:100CD200831203133D08840083173E1C83130130E3
:100CE200F3003F0CF400F40C740C0739013E7B2E28
:100CF2000310F30DFF3E031D792E7308FF3A8005A2
:100D020008003D308400760883138000840A770847
:100D12008000840A78088000840A79088000840AA6
:100D22007A0880000030831203133E06031D9B2EB7
:100D320005303D06031D9E2E9F2EA32E8316031300
:100D42008501BE2E00303E06031DA92E06303D064B
:100D5200031DAC2EAD2EB12E831603138601BE2EBB
:100D620000303E06031DB72E07303D06031DBA2E86
:100D7200BB2E2E2F8316031387013430FC00F13073
:100D8200FB00FB0BC22EFC0BC22EC72E03300A1235
:100D92008A11B8240A128A110D30FC00FB30FB00C4
:100DA200FB0BD12EFC0BD12ED62E03300A128A1148
:100DB200B8240A128A112A30FC008D30FB00FB0B8A
:100DC200E02EFC0BE02EE52E03300A128A11B82425
:100DD2000A128A1102300A128A11B8240A128A11DE
:100DE20002300A128A11B8240A128A1108300A1231
:100DF2008A11B8240A128A1100300A128A11B82400
:100E02000A128A1106300A128A11B8240A128A11A9
:100E12000830FD007D157D08FB0004300310FB0C3B
:100E2200FF3E031D0F2F7B080F390A128A11B824C7
:100E32000A128A117D080F390A128A11B8240A127D
:100E42008A1100300A128A11B8240A128A1101305A
:100E52000A128A11B8240A128A110800F200721CBE
:100E6200332F342F492F831203133D088400831735
:100E72003E1C83130130F00040080739013E432F26
:100E82000310F00DFF3E031D412F700880045E2FFA
:100E9200831203133D08840083173E1C8313013021
:100EA200F00040080739013E582F0310F00DFF3EB5
:100EB200031D562F7008FF3A8005F21C612F622F26
:100EC200782F3D08840083173E1C83130130F00005
:100ED200400CF100F10C710C0739013E722F031026
:100EE200F00DFF3E031D702F700880048E2F3D0809
:100EF200840083173E1C83130130F000400CF10084
:100F0200F10C710C0739013E882F0310F00DFF3EE2
:100F1200031D862F7008FF3A8005721D912F922FB4
:100F2200A52F3D08840083173E1C83130130F00077
:100F320041080739013E9F2F0310F00DFF3E031DAC
:100F42009D2F70088004B82F3D08840083173E1C33
:100F520083130130F00041080739013EB22F03101C
:100F6200F00DFF3E031DB02F7008FF3A8005F21D01
:100F7200BB2FBC2FD22F3D08840083173E1C831346
:100F82000130F000410CF100F10C710C0739013E07
:100F9200CC2F0310F00DFF3E031DCA2F70088004F2
:100FA200E82F3D08840083173E1C83130130F000B4
:100FB200410CF100F10C710C0739013EE22F0310D4
:100FC200F00DFF3E031DE02F7008FF3A8005080078
:100FD20083133530FD000430FE003C30FF0020302A
:100FE20084000A128A112D240A128A11BD01BE013F
:0E0FF200BF01C001C10183010A128A116B2DDB
:04400E00F22FFF3F4F
:00000001FF
