:060000000A128A110C280F
:10000800FE00030EF0000A08F1000A128A11C82E39
:100018000A128A110F28831603130A128A118F27CE
:100028000A128A11DB000A128A1190270A128A1111
:10003800DC000A128A1191270A128A11DD000A12BD
:100048008A1192270A128A11DE000A128A1193274E
:100058000A128A11DF008313A0308400D2300A12FA
:100068008A1187270A128A1183120313E401E50112
:10007800E601E701E801FB0183010A128A1144281D
:100088000A128A117C270A128A11D2308400831638
:1000980003135B0883138000840A5C088000840AC9
:1000A8005D088000840A5E088000840A5F0880007A
:1000B8002030840052088000840A53088000840A93
:1000C80054088000840A55088000840A5608800075
:1000D8000A128A1177220A128A1100300A128A112A
:1000E80035250A128A1101300A128A1135250A1299
:1000F8008A1108300A128A1135250A128A1100302D
:100108000A128A1135250A128A110B30F80080303C
:10011800F9000A128A11DD250A128A1108300A121A
:100128008A1135250A128A1100300A128A113525DA
:100138000A128A113C30F2000030F30083160313D0
:100148002708F5002608F4000A128A1123260A1245
:100158008A11730883160313D8007208D7003C303D
:10016800F2000030F3002708F5002608F4000A1210
:100178008A1165260A128A11730883160313DA0096
:100188007208D900C83083120313CE000130CF00A3
:1001980083160313580883120313D100831603131D
:1001A800570883120313D000831603135A088312C7
:1001B8000313D30083160313590883120313D200C1
:1001C8000A128A1116270A128A11C830F80000305C
:1001D800F9000A128A11DD250A128A1102308312E7
:1001E8000313E3000430E200B930E100E10BFA2820
:1001F800E20BFA28E30BFA28012992280A128A113D
:100208000C28F400741C09290A291F2983120313D6
:10021800640884008317651C83130130F2006708A3
:100228000739013E19290310F20DFF3E031D172956
:100238007208800434298312031364088400831726
:10024800651C83130130F20067080739013E2E2927
:100258000310F20DFF3E031D2C297208FF3A80059A
:10026800F41C372938294E29640884008317651C33
:1002780083130130F200670CF300F30C730C073999
:10028800013E48290310F20DFF3E031D462972085E
:1002980080046429640884008317651C8313013073
:1002A800F200670CF300F30C730C0739013E5E296A
:1002B8000310F20DFF3E031D5C297208FF3A80050A
:1002C800741D672968297B29640884008317651CC5
:1002D80083130130F20068080739013E75290310BD
:1002E800F20DFF3E031D7329720880048E296408ED
:1002F80084008317651C83130130F20068080739EE
:10030800013E88290310F20DFF3E031D862972085D
:10031800FF3A8005F41D91299229A82964088400D0
:100328008317651C83130130F200680CF300F30C8B
:10033800730C0739013EA2290310F20DFF3E031D7D
:10034800A02972088004BE29640884008317651CEC
:1003580083130130F200680CF300F30C730C0739B7
:10036800013EB8290310F20DFF3E031DB62972089D
:10037800FF3A80050800831203133F0884008313A3
:10038800000884000A128A1166270A128A11253A7F
:10039800031DCF29D0295D2A3F088400013080073A
:1003A80083160313A001A1010030FB00FF30A20057
:1003B800FF30A30083120313C701F829FB143F0879
:1003C800840001308007F8290130C700F8293F0868
:1003D8008400000884000A128A1166270A128A110A
:1003E800303A0319E229E82947080319FC29FD29AD
:1003F800EB293F08F8004008F9000A128A11DE24A8
:100408000A128A11790883160313A1007808A0003C
:10041800A11F0F2A102A162A7B14A009A109A00AD5
:100428000319A10A831203133F08840083130008E9
:10043800C800480884000A128A1166270A128A111D
:10044800753A031D282A292A552A400884000008DD
:10045800C10002308007410884000008C300840AF4
:100468000008C4003F0884004808013E80004A2A6A
:100478003D08B4003E08B5004408B7004308B6007C
:100488000A128A1158240A128A11762A4808840006
:100498000A128A1166270A128A11753A03193C2A28
:1004A800552A831203133F08840001308313800701
:1004B800762A3F088400000884000A128A116627F9
:1004C8000A128A11C100C2014108F2004208F30071
:1004D8003D08F4003E08F5000A128A1124230A1286
:1004E8008A11552A080064308400831203132008F7
:1004F80083138000840A21088000840A220880006F
:10050800840A23088000840A2408800000306506D5
:10051800031D902A05306406031D932A942A982AFD
:10052800831603138501B32A00306506031D9E2A2E
:1005380006306406031DA12AA22AA62A83160313DD
:100548008601B32A00306506031DAC2A073064060D
:10055800031DAF2AB02A232B8316031387013430D7
:10056800F900F130F800F80BB72AF90BB72ABC2AC2
:1005780003300A128A1135250A128A110D30F90042
:10058800FB30F800F80BC62AF90BC62ACB2A033031
:100598000A128A1135250A128A112A30F9008D307B
:1005A800F800F80BD52AF90BD52ADA2A03300A12F3
:1005B8008A1135250A128A1102300A128A11352544
:1005C8000A128A1102300A128A1135250A128A1172
:1005D80008300A128A1135250A128A1100300A12C7
:1005E8008A1135250A128A1106300A128A11352510
:1005F8000A128A110830FA007A157A08F8000430CD
:100608000310F80CFF3E031D042B78080F390A125B
:100618008A1135250A128A117A080F390A128A11A5
:1006280035250A128A1100300A128A1135250A1254
:100638008A1101300A128A1135250A128A11080016
:10064800740875040319292B2A2B302B7408750498
:10065800031D2F2B302B372B72080A128A1194276F
:100668000A128A11C32B7408093E83120313A000CF
:1006780075080318013E003EA10020088400831776
:10068800211C83130008A200840A0008A300220882
:1006980023040319502B512B832B7408093EA00007
:1006A80075080318013E003EA10020088400831746
:1006B800211C83130008A200840A0008A300740800
:1006C800023EA40075080318013E003EA500240858
:1006D80084008317251C83130008A600840A0008D9
:1006E800A7002708803AA8002308803A2802031D9B
:1006F8007F2B220826020318822B832BC32B740816
:1007080084008317751C8313000883120313A00049
:10071800840A0008A1007408023EA20075080318A4
:10072800013E003EA300220884008317231C831384
:1007380000082007A5002108A4000318A40A801FA8
:10074800A62BA403831203132408A60025088400FB
:100758008317261C8313720880007408023EA000C9
:1007680075080318013E003EA10020088400831785
:10077800211C831301308007840A0318800A0800AB
:10078800F70083120313640884008317651C83131E
:100798000130F50066080739013ED42B0310F50D2A
:1007A800FF3E031DD22B750880047708F50004303E
:1007B8000310F50CFF3E031DDC2B75080F390A12D8
:1007C8008A1105210A128A1183120313640884000E
:1007D8008317651C83130130F500660CF600F60CD0
:1007E800760C0739013EFA2B0310F50DFF3E031D69
:1007F800F82B750880041A30F500F50B012C000061
:1008080083120313640884008317651C8313013063
:10081800F500660CF600F60C760C0739013E162C2E
:100828000310F50DFF3E031D142C7508FF3A8005D3
:1008380077080F390A128A1105210A128A118312C0
:100848000313640884008317651C83130130F500C3
:10085800660CF600F60C760C0739013E352C0310B1
:10086800F50DFF3E031D332C750880041A30F50082
:10087800F50B3C2C000083120313640884008317D3
:10088800651C83130130F500660CF600F60C760C37
:100898000739013E512C0310F50DFF3E031D4F2C67
:1008A8007508FF3A80050800013083120313B80069
:1008B80083160313210883120313BA008316031344
:1008C800200883120313B9001F30BB000030BC009E
:1008D80083160313C701A82CFF3083120313BB0729
:1008E8000318BC0AFF30BC073B08A83E84000A3046
:1008F800F2000030F3003708F5003608F4000A1259
:100908008A1165260A128A117208303E8313800004
:1009180083120313B801FF30B9070318BA0AFF306E
:10092800BA070A30F2000030F3003708F50036083D
:10093800F4000A128A1123260A128A1173088312F4
:100948000313B7007208B60083123B083C0403196E
:10095800AE2CAF2CCB2C36083704031DB42CB52C89
:10096800702C3808031DB92CBA2C702C3A08803A20
:10097800FF0080307F02031DC32C01303902031CA5
:10098800C62CC72CCB2CFB18CA2CCB2C702C831252
:1009980003133408AC003508AD003B08A83EAE0090
:1009A8003A08B0003908AF000A128A118A250A12DB
:1009B8008A11080083120313A101A2017808840098
:1009C8008313000884000A128A1166270A128A1102
:1009D8002A3A031DF02CF12C1F2D780884000130D1
:1009E8008007790884000008FA00023080077A0836
:1009F80084000008A100840A0008A200302D220803
:100A0800F3002108F2000A30F4000030F5000A1261
:100A18008A11F1260A128A11831203132008720719
:100A2800A1000030031801307307A2007808840081
:100A380001308313800778088400000884000A12B4
:100A48008A1166270A128A11D03EA0000A302002B5
:100A5800031C2F2D302D032D2208F9002108F80042
:100A68000800F70083120313640884008317651CC9
:100A780083130130F50066080739013E452D031040
:100A8800F50DFF3E031D432D7508FF3A80057708D5
:100A98000A128A1105210A128A11831203136408A3
:100AA80084008317651C83130130F500660CF6007B
:100AB800F60C760C0739013E632D0310F50DFF3E49
:100AC800031D612D750880040B30F6006230F500B7
:100AD800F50B6C2DF60B6C2D0000831203136408C4
:100AE80084008317651C83130130F500660CF6003B
:100AF800F60C760C0739013E832D0310F50DFF3EE9
:100B0800031D812D7508FF3A800508007B1C8D2D7B
:100B18008E2D9B2D831203132E08F6002C08F70048
:100B28002D08F8000A128A119D260A128A118312CA
:100B38000313B01FA02DA12DA32DAF01B001B20149
:100B4800B301BD2D2030F2000030F30083120313EF
:100B58002C08F4002D08F5000A128A1124230A1221
:100B68008A11013083120313B2070318B30A003045
:100B7800B3073308803AB1003008803A3102031DC8
:100B8800C72D2F083202031CCA2DCB2DA62D7B188A
:100B9800CE2DCF2DDC2D831203132E08F6002C0842
:100BA800F7002D08F8000A128A119D260A128A11E8
:100BB800080083120313A301A401062E2308780753
:100BC800A1007908A0000318A00AA31FEC2DA00318
:100BD800831203132008A2002208FF0021088400C2
:100BE8000A128A115C270A128A110A128A11C4236E
:100BF8000A128A11013083120313A3070318A40AE7
:100C08000030A40723087807A1007908A00003187A
:100C1800A00AA31F102EA003831203132008A2000A
:100C28002208FF00210884000A128A115C270A1290
:100C38008A11003A031D212E222EE22D0800F70109
:100C4800F8017208730403192A2E2B2E602E013026
:100C5800F600372E01300310F20DF30DFF3E031D91
:100C68002F2E0130F607F31F3A2E3B2E2E2E013081
:100C78000310F70DF80DFF3E031D3C2E7308750297
:100C8800031D482E72087402031C4B2E4C2E532E43
:100C98007208F4027308031CF503F5027714013097
:100CA8000310F30CF20CFF3E031D542E0130F60224
:100CB800031D5F2E602E3B2E7808F3007708F200A4
:100CC80008007208730403196A2E6B2E982E0130DF
:100CD800F600772E01300310F20DF30DFF3E031DD1
:100CE8006F2E0130F607F31F7A2E7B2E6E2E7308B7
:100CF8007502031D812E72087402031C842E852E32
:100D08008B2E7208F4027308031CF503F5020130F8
:100D18000310F30CF20CFF3E031D8C2E0130F6027B
:100D2800031D972E982E7B2E7508F3007408F20089
:100D3800080083120313AA01AB01BA2E2908F9008F
:100D4800FA017908F2007A08F3007708F4007808C5
:100D5800F5000A128A1124230A128A11013083121B
:100D68000313AA070318AB0A0030AB072A08760753
:100D7800F9007908840083130008A9002908031DD5
:100D8800C62EC72EA22E08000B1DCB2ECC2EEA2E67
:100D9800013083160313A4070318A50A0030A5071A
:100DA80000302502653003192402031CDC2EDD2ED9
:100DB800E52E0130A6070318A70A0030A707A401EB
:100DC800A501B5308312031381000B1171088A0045
:100DD800700E8300FE0E7E0E0900F601F701721CEC
:100DE800F62EF72EFD2E7408F6070318F70A750875
:100DF800F70701300310F40DF50DFF3E031DFE2E1D
:100E080001300310F30CF20CFF3E031D052F72088E
:100E18007304031D102F112FF32E7708F3007608A3
:100E2800F2000800503083120313D5004E08D60094
:100E38000030D700D801D901DF01E0015630C900E0
:100E48000030CA004F08CB005530CC000A128A1176
:100E580039270A128A118312031358084E07D4003F
:100E680054088400831380010800831203134B087D
:100E7800CD004B2F4908BD004A08BE004D30BF00C9
:100E88004C08C0000A128A11BF210A128A11831263
:100E980003134D0884000A128A1166270A128A1160
:100EA800003A031D582F592F3E2FC901CA010800C7
:100EB800FF1B662F83137F1883170008840A031902
:100EC800FF0A080007308A000408840A82070034F1
:100ED80025343034323475343A34253430343234AD
:100EE80075340034303430343A34303430340034EB
:100EF8000730831603138100B53083120313810072
:100F08008B168B17080064008001840A04060319F5
:100F180000340406882F073400341A342C343E3445
:020F28000800BF
:04400E00F22FFF3F4F
:00000001FF
