:100000000A128A11D92F00308A000408840A820754
:1000100000342034483445344C344C344F3420348C
:0E00200057344F3452344C34443421340034BD
:1009B200073400341A342C343E34F701F801F42C95
:1009C2007708760784000A128A1103200A128A1114
:1009D2000A128A11DE250A128A110130F70703185A
:1009E200F80A0030F8077708760784000A128A119D
:1009F20003200A128A11003A031D002D012DE12C59
:100A02000800F500831203132908840083172A1CA7
:100A120083130130F3002B080739013E122D031016
:100A2200F30DFF3E031D102D7308FF3A8005750874
:100A32000A128A111F270A128A1183120313290824
:100A4200840083172A1C83130130F3002B0CF4005B
:100A5200F40C740C0739013E302D0310F30DFF3EE8
:100A6200031D2E2D730880040B30F4006230F30056
:100A7200F30B392DF40B392D0000831203132908CF
:100A8200840083172A1C83130130F3002B0CF4001B
:100A9200F40C740C0739013E502D0310F30DFF3E88
:100AA200031D4E2D7308FF3A800508002330840091
:100AB200831203132E0883138000840A2F088000F8
:100AC200840A30088000840A31088000840A3208CF
:100AD20080007630840023088000840A2408800085
:100AE200840A25088000840A26088000840A2708D0
:100AF20080000A128A1172260A128A1100300A1222
:100B02008A1102250A128A1101300A128A1102255B
:100B12000A128A1108300A128A1102250A128A114F
:100B220000300A128A1102250A128A110130F600D7
:100B32000A128A11DE240A128A110C300A128A1150
:100B420002250A128A1100300A128A1102250A129B
:100B52008A11413083120313A80028080A128A114D
:100B6200DE250A128A11043083120313A2000C300C
:100B7200A1003330A000A00BBC2DA10BBC2DA20BF9
:100B8200BC2D013083120313A80752302802031C24
:100B9200CB2DCC2DAE2D0B3083120313A2002630A9
:100BA200A1005D30A000A00BD42DA10BD42DA20B6F
:100BB200D42D7F2D0A128A110028F5008312031307
:100BC2002908840083172A1C83130130F3002B08A1
:100BD2000739013EEE2D0310F30DFF3E031DEC2DF0
:100BE200730880047508F30004300310F30CFF3E11
:100BF200031DF62D73080F390A128A111F270A12D4
:100C02008A11831203132908840083172A1C831371
:100C12000130F3002B0CF400F40C740C0739013E84
:100C2200142E0310F30DFF3E031D122E73088004D1
:100C32001A30F300F30B1B2E000083120313290852
:100C4200840083172A1C83130130F3002B0CF40059
:100C5200F40C740C0739013E302E0310F30DFF3EE5
:100C6200031D2E2E7308FF3A800575080F390A12EC
:100C72008A111F270A128A1183120313290884007A
:100C820083172A1C83130130F3002B0CF400F40C9D
:100C9200740C0739013E4F2E0310F30DFF3E031D66
:100CA2004D2E730880041A30F300F30B562E000009
:100CB200831203132908840083172A1C831301302B
:100CC200F3002B0CF400F40C740C0739013E6B2E6C
:100CD2000310F30DFF3E031D692E7308FF3A8005D2
:100CE200080029308400760883138000840A77087C
:100CF2008000840A78088000840A79088000840AC7
:100D02007A0880000030831203132A06031D8B2EFB
:100D120005302906031D8E2E8F2E932E8316031364
:100D22008501AE2E00302A06031D992E06302906B3
:100D3200031D9C2E9D2EA12E831603138601AE2E1B
:100D420000302A06031DA72E07302906031DAA2EEE
:100D5200AB2E1E2F8316031387013430FC00F130B3
:100D6200FB00FB0BB22EFC0BB22EB72E03300A1285
:100D72008A1102250A128A110D30FC00FB30FB0099
:100D8200FB0BC12EFC0BC12EC62E03300A128A1198
:100D920002250A128A112A30FC008D30FB00FB0B5F
:100DA200D02EFC0BD02ED52E03300A128A1102252A
:100DB2000A128A1102300A128A1102250A128A11B3
:100DC20002300A128A1102250A128A1108300A1206
:100DD2008A1102250A128A1100300A128A1102258A
:100DE2000A128A1106300A128A1102250A128A117F
:100DF2000830FD007D157D08FB0004300310FB0C5C
:100E0200FF3E031DFF2E7B080F390A128A110225AD
:100E12000A128A117D080F390A128A1102250A1252
:100E22008A1100300A128A1102250A128A1101302F
:100E32000A128A1102250A128A110800F200721C93
:100E4200232F242F392F8312031329088400831799
:100E52002A1C83130130F0002C080739013E332F7E
:100E62000310F00DFF3E031D312F700880044E2F3A
:100E7200831203132908840083172A1C8313013069
:100E8200F0002C080739013E482F0310F00DFF3EF9
:100E9200031D462F7008FF3A8005F21C512F522F76
:100EA200682F2908840083172A1C83130130F0005D
:100EB2002C0CF100F10C710C0739013E622F03106A
:100EC200F00DFF3E031D602F700880047E2F29085D
:100ED200840083172A1C83130130F0002C0CF100CC
:100EE200F10C710C0739013E782F0310F00DFF3E13
:100EF200031D762F7008FF3A8005721D812F822F05
:100F0200952F2908840083172A1C83130130F000CF
:100F12002D080739013E8F2F0310F00DFF3E031DF0
:100F22008D2F70088004A82F2908840083172A1C9B
:100F320083130130F0002D080739013EA22F031060
:100F4200F00DFF3E031DA02F7008FF3A8005F21D31
:100F5200AB2FAC2FC22F2908840083172A1C8313BE
:100F62000130F0002D0CF100F10C710C0739013E3B
:100F7200BC2F0310F00DFF3E031DBA2F7008800432
:100F8200D82F2908840083172A1C83130130F0000C
:100F92002D0CF100F10C710C0739013ED22F031018
:100FA200F00DFF3E031DD02F7008FF3A80050800A8
:100FB2000A128A11D9240A128A11AE000A128A115F
:100FC200DA240A128A11AF000A128A11DB240A12E9
:100FD2008A11B0000A128A11DC240A128A11B100A5
:100FE2000A128A11DD240A128A11B200A901AA0189
:0E0FF200AB01AC01AD0183010A128A11572D2B
:04400E00F22FFF3F4F
:00000001FF
