:060000000A128A110C280F
:10000800FE00030EF0000A08F1000A128A15762F86
:100018000A128A110F28831603130A128A15D42686
:100028000A128A11E8000A128A15D5260A128A11BC
:10003800E9000A128A15D6260A128A11EA000A125B
:100048008A15D7260A128A11EB000A128A15D826B1
:100058000A128A11EC008313A0308400CA300A12F5
:100068008A15D9260A128A11613084006E300A1264
:100078008A15D9260A128A11FB0183010A128A11EC
:1000880045280A128A15EC260A128A110A128A15BC
:10009800E1260A128A11D7308400831603136808F0
:1000A80083138000840A69088000840A6A08800033
:1000B800840A6B088000840A6C0880002030840061
:1000C80057088000840A58088000840A590880006C
:1000D800840A5A088000840A5B0880000A128A1180
:1000E80031230A128A1100300A128A1180260A1254
:1000F8008A1101300A128A1180260A128A110C30DC
:100108000A128A1180260A128A110B300A128A11E1
:1001180080260A128A111530F8008030F9000A1278
:100128008A1174270A128A1108300A128A11802645
:100138000A128A1100300A128A1180260A128A11BC
:100148000130F8008030F9000A128A1174270A1267
:100158008A110C300A128A1180260A128A110B3071
:100168000A128A1180260A128A113C30F2000030E5
:10017800F300831203136D08F5006C08F4000A12EB
:100188008A11BA270A128A11730883160313E30027
:100198007208E2003C30F2000030F30083120313CF
:1001A8006D08F5006C08F4000A128A15C8270A12AF
:1001B8008A11730883160313E5007208E400C0303F
:1001C80083120313CE000B30CF008316031363088A
:1001D80083120313D10083160313620883120313D7
:1001E800D00083160313650883120313D300831604
:1001F8000313640883120313D2000A128A152E27E8
:100208000A128A11C030F8000030F9000A128A1167
:1002180074270A128A110A128A15F9260A128A11F3
:10022800730883160313DD007208DC0000308312A4
:100238000313A7000030A6000330A500FF30A40078
:10024800831603135C08F2005D08F300F401F5015E
:100258000030F9000030F800C330F7005030F600E5
:100268000A128A1128270A128A11750883120313A1
:10027800AB007408AA007308A9007208A8000A1243
:100288008A117E240A128A11831203132508831601
:100298000313E70083120313240883160313E600ED
:1002A8001030F2002730F3006708F5006608F40004
:1002B8000A128A11BA270A128A11730883160313BD
:1002C800DF007208DE001030F2002730F300670804
:1002D800F5006608F4000A128A15C8270A128A115E
:1002E800730883160313E1007208E000CD3083120F
:1002F8000313CE001B30CF00831603135F0883124D
:100308000313D100831603135E0883120313D0006E
:1003180083160313610883120313D3008316031390
:10032800600883120313D2000A128A152E270A12B4
:100338008A1108300A128A1180260A128A11093095
:100348000A128A1180260A128A11CD30F80000306C
:10035800F9000A128A1174270A128A1102308316C8
:100368000313CC000430CB00B930CA00CA0BBA2939
:10037800CB0BBA29CC0BBA29C129AD280A128A118C
:100388000C28F400741CC929CA29DF298312031315
:10039800610884008317621C83130130F20064082B
:1003A8000739013ED9290310F20DFF3E031DD72955
:1003B80072088004F42983120313610884008317E8
:1003C800621C83130130F20064080739013EEE29EC
:1003D8000310F20DFF3E031DEC297208FF3A800559
:1003E800F41CF729F8290E2A610884008317621C77
:1003F80083130130F200640CF300F30C730C07391B
:10040800013E082A0310F20DFF3E031D062A72085A
:100418008004242A610884008317621C8313013036
:10042800F200640CF300F30C730C0739013E1E2A2A
:100438000310F20DFF3E031D1C2A7208FF3A8005C7
:10044800741D272A282A3B2A610884008317621C06
:1004580083130130F20065080739013E352A03107D
:10046800F20DFF3E031D332A720880044E2A6108EC
:1004780084008317621C83130130F2006508073972
:10048800013E482A0310F20DFF3E031D462A72085A
:10049800FF3A8005F41D512A522A682A610884000F
:1004A8008317621C83130130F200650CF300F30C10
:1004B800730C0739013E622A0310F20DFF3E031D3B
:1004C800602A720880047E2A610884008317621CEF
:1004D80083130130F200650CF300F30C730C073939
:1004E800013E782A0310F20DFF3E031D762A72089A
:1004F800FF3A80050800831203133F088400831322
:10050800000884000A128A150A200A128A11253A5C
:10051800031D8F2A902A172B3F088400013080077B
:10052800E601E7010030FB00FF30E800FF30E9009A
:10053800C701B42AFB143F08840001308007B42A9D
:100548000130C700B42A3F088400000884000A125A
:100558008A150A200A128A11303A03199E2AA42AF7
:1005680047080319B82AB92AA72A3F08F8004008FB
:10057800F9000A128A1129260A128A1179088312A7
:100588000313E7007808E600E71FCB2ACC2AD22A13
:100598007B14E609E709E60A0319E70A3F0884001D
:1005A80083130008C800480884000A128A150A2024
:1005B8000A128A11753A031DE22AE32A0F2B400812
:1005C80084000008C1000230800741088400000848
:1005D800C300840A0008C4003F0884004808013E9C
:1005E8008000042B3D08B4003E08B5004408B7005D
:1005F8004308B6000A128A11AB250A128A11302B59
:10060800480884000A128A150A200A128A11753AC3
:100618000319F62A0F2B831203133F0884000130B5
:1006280083138007302B3F088400000884000A12D7
:100638008A150A200A128A11C100C2014108F20073
:100648004208F3003D08F4003E08F5000A128A113A
:10065800DE230A128A110F2B0800613084008312EE
:100668000313200883138000840A21088000840A69
:1006780022088000840A23088000840A2408800055
:1006880000306206031D4A2B05306106031D4D2B01
:100698004E2B522B8316031385016D2B00306206F7
:1006A800031D582B06306106031D5B2B5C2B602B4A
:1006B8008316031386016D2B00306206031D662B1B
:1006C80007306106031D692B6A2BDD2B8316031384
:1006D80087013430F900F130F800F80B712BF90B71
:1006E800712B762B03300A128A1180260A128A117E
:1006F8000D30F900FB30F800F80B802BF90B802B3C
:10070800852B03300A128A1180260A128A112A3090
:10071800F9008D30F800F80B8F2BF90B8F2B942BE9
:1007280003300A128A1180260A128A1102300A122C
:100738008A1180260A128A1102300A128A1180262A
:100748000A128A1108300A128A1180260A128A119E
:1007580000300A128A1180260A128A1106300A12FB
:100768008A1180260A128A110830FA007A157A0846
:10077800F80004300310F80CFF3E031DBE2B780868
:100788000F390A128A1180260A128A117A080F393B
:100798000A128A1180260A128A1100300A128A1156
:1007A80080260A128A1101300A128A1180260A123A
:1007B8008A110800740875040319E32BE42BEA2B4B
:1007C80074087504031DE92BEA2BF12B72080A1231
:1007D8008A11FC270A128A117D2C7408093E83129B
:1007E8000313A00075080318013E003EA10020086D
:1007F80084008317211C83130008A200840A0008C0
:10080800A3002208230403190A2C0B2C3D2C74087E
:10081800093EA00075080318013E003EA10020080B
:1008280084008317211C83130008A200840A00088F
:10083800A3007408023EA40075080318013E003E98
:10084800A500240884008317251C83130008A6002C
:10085800840A0008A7002708803AA8002308803ADD
:100868002802031D392C2208260203183C2C3D2C93
:100878007D2C740884008317751C83130008831269
:100888000313A000840A0008A1007408023EA20015
:1008980075080318013E003EA30022088400831750
:1008A800231C831300082007A5002108A4000318AF
:1008B800A40A801F602CA403831203132408A60033
:1008C800250884008317261C831372088000740887
:1008D800023EA00075080318013E003EA100200852
:1008E80084008317211C831301308007840A0318AE
:1008F800800A080083120313AE01A71F842C852CDD
:10090800922CA409A509A609A709A40A0319A50AEE
:100918000319A60A0319A70A0130AE00AB1F952CCC
:10092800962CA32CA809A909AA09AB09A80A031996
:10093800A90A0319AA0A0319AB0A0130AE06003046
:10094800B2000030B1000030B0000030AF0027081E
:100958002604250424040319B22CB32CFE2C0130E0
:10096800AD00C12C0130AC000310A40DA50DA60DDF
:10097800A70DAC0BB82C0130AD07A71FC42CC52C94
:10098800B62C0130AC000310AF0DB00DB10DB20D97
:10099800AC0BC72C27082B02031DDC2C26082A02C7
:1009A800031DDC2C25082902031DDC2C2408280241
:1009B800031CDF2CE02CEF2C2408A8022508031CBC
:1009C800250FA9022608031C260FAA022708031CC4
:1009D800270FAB022F1401300310A70CA60CA50C8F
:1009E800A40CFF3E031DF02C0130AD02031DFD2CAD
:1009F800FE2CC52C2E080319022D032D0E2DAF0930
:100A0800B009B109B209AF0A0319B00A0319B10A4A
:100A18000319B20A3208A7003108A6003008A50059
:100A28002F08A4000800F70083120313610884004C
:100A38008317621C83130130F50063080739013EF0
:100A4800272D0310F50DFF3E031D252D7508800485
:100A58007708F50004300310F50CFF3E031D2F2D19
:100A680075080F390A128A11C5210A128A118312D0
:100A78000313610884008317621C83130130F50097
:100A8800630CF600F60C760C0739013E4D2D031069
:100A9800F50DFF3E031D4B2D750880041A30F50037
:100AA800F50B542D0000831203136108840083178B
:100AB800621C83130130F500630CF600F60C760C0B
:100AC8000739013E692D0310F50DFF3E031D672D03
:100AD8007508FF3A800577080F390A128A11C5216F
:100AE8000A128A1183120313610884008317621C97
:100AF80083130130F500630CF600F60C760C073909
:100B0800013E882D0310F50DFF3E031D862D750847
:100B180080041A30F500F50B8F2D000083120313A3
:100B2800610884008317621C83130130F500630C8D
:100B3800F600F60C760C0739013EA42D0310F50DCE
:100B4800FF3E031DA22D7508FF3A800508000130FD
:100B580083120313B8006708BA006608B9001F308B
:100B6800BB000030BC0083160313BF01F32DFF3018
:100B780083120313BB070318BC0AFF30BC073B08EA
:100B8800A03E84000A30F2000030F3003708F50078
:100B98003608F4000A128A15C8270A128A11720840
:100BA800303E8313800083120313B801FF30B90766
:100BB8000318BA0AFF30BA070A30F2000030F3000F
:100BC8003708F5003608F4000A128A11BA270A1203
:100BD8008A11730883120313B7007208B6008312D0
:100BE8003B083C040319F92DFA2D162E3608370454
:100BF800031DFF2D002EBB2D3808031D042E052EC6
:100C0800BB2D3A08803AFF0080307F02031D0E2E6C
:100C180001303902031C112E122E162EFB18152E28
:100C2800162EBB2D831203133408AC003508AD0013
:100C38003B08A03EAE003A08B0003908AF000A12DF
:100C48008A11D5260A128A11080083120313A101FA
:100C5800A201780884008313000884000A128A1508
:100C68000A200A128A112A3A031D3B2E3C2E6A2EAC
:100C78007808840001308007790884000008FA00A9
:100C8800023080077A0884000008A100840A00085E
:100C9800A2007B2E2208F3002108F2000A30F4009B
:100CA8000030F5000A128A1551270A128A11831298
:100CB800031320087207A1000030031801307307DE
:100CC800A200780884000130831380077808840024
:100CD800000884000A128A150A200A128A11D03ED6
:100CE800A0000A302002031C7A2E7B2E4E2E2208EA
:100CF800F9002108F8000800F700831203136108BF
:100D080084008317621C83130130F50063080739D8
:100D1800013E902E0310F50DFF3E031D8E2E750823
:100D2800FF3A800577080A128A11C5210A128A112A
:100D380083120313610884008317621C8313013034
:100D4800F500630CF600F60C760C0739013EAE2E62
:100D58000310F50DFF3E031DAC2E750880040B3003
:100D6800F6006230F500F50BB72EF60BB72E000033
:100D780083120313610884008317621C83130130F4
:100D8800F500630CF600F60C760C0739013ECE2E02
:100D98000310F50DFF3E031DCC2E7508FF3A8005A4
:100DA80008007B1CD82ED92EE62E831203132E089A
:100DB800F6002C08F7002D08F8000A128A159D275E
:100DC8000A128A1183120313B01FEB2EEC2EEE2E9B
:100DD800AF01B001B201B301082F2030F20000309A
:100DE800F300831203132C08F4002D08F5000A12EF
:100DF8008A11DE230A128A11013083120313B20703
:100E08000318B30A0030B3073308803AB10030083A
:100E1800803A3102031D122F2F083202031C152FAE
:100E2800162FF12E7B18192F1A2F272F8312031331
:100E38002E08F6002C08F7002D08F8000A128A156B
:100E48009D270A128A110800003083120313A30099
:100E58000030A2000030A1000030A000721C352F25
:100E6800362F4F2F760883120313A0077708031134
:100E78000318013E0319412FA1077808031103182D
:100E8800013E0319482FA207790803110318013EF0
:100E980003194F2FA3070130FA000310F60DF70DC1
:100EA800F80DF90DFA0B512F01300310F50CF40C65
:100EB800F30CF20CFF3E031D592F750874047304DC
:100EC8007204031D682F692F322F8312031323081E
:100ED800F5002208F4002108F3002008F2000800B9
:100EE80083120313A301A4019D2F23087807A100EF
:100EF8007908A0000318A00AA31F832FA003831258
:100F080003132008A2002208FF00210884000A1207
:100F18008A1500200A128A110A128A1117250A1244
:100F28008A11013083120313A3070318A40A00309F
:100F3800A40723087807A1007908A0000318A00ACD
:100F4800A31FA72FA003831203132008A2002208BF
:100F5800FF00210884000A128A1500200A128A114B
:100F6800003A031DB82FB92F792F0800F601F701B1
:100F7800720873040319C12FC22FF72F0130F8002C
:100F8800CE2F01300310F20DF30DFF3E031DC62FC7
:100F98000130F807F31FD12FD22FC52F01300310CE
:100FA800F60DF70DFF3E031DD32F73087502031DC1
:100FB800DF2F72087402031CE22FE32FEA2F720856
:100FC800F4027308031CF503F502761401300310CC
:100FD800F30CF20CFF3E031DEB2F0130F802031D4A
:100FE800F62FF72FD22F7708F3007608F2000800C3
:020FF8000800EF
:10100000FF1B0A2883137F1883170008840A03191B
:10101000FF0A080008308A000408840A82070034A6
:1010200056346F346C34743461346A3465343A3411
:101030002034003425343034323475343A34253495
:101040003034323475340034303430343A3430345F
:1010500030340034253475342E342534753400345E
:101DA800073400341A342C343E3464008001840A29
:101DB8000406031900340406DA2E073083160313C9
:101DC8008100B5308312031381008B168B1708002E
:101DD80001308316031788008130831203139F0094
:101DE8008030831603139F0008000330F400F40BBF
:101DF800FB2E831203139F149F18032F042F002F09
:101E08001E08F300831603131E08F200080083124D
:101E180003134B08CD001D2F4908BD004A08BE001A
:101E28004D30BF004C08C0000A128A117F220A12E6
:101E38008A15831203134D0884000A128A150A2092
:101E48000A128A15003A031D2A2F2B2F102FC901B9
:101E5800CA010800503083120313D5004E08D6007B
:101E68000030D700D801D901DF01E0015630C900A0
:101E78000030CA004F08CB005530CC000A128A1532
:101E88000B270A128A158312031358084E07D40029
:101E980054088400831380010800F601F701721CBE
:101EA800562F572F5D2F7408F6070318F70A750881
:101EB800F70701300310F40DF50DFF3E031D5E2FEB
:101EC80001300310F30CF20CFF3E031D652F72085E
:101ED8007304031D702F712F532F7708F3007608B2
:101EE800F20008000B1D792F7A2F962F01308312EC
:101EF8000313EA070318EB0A0030EB0700306B0204
:101F0800653003196A02031C8A2F8B2F932F013027
:101F1800EC070318ED0A0030ED07EA01EB01B530D4
:101F280081000B1171088A00700E8300FE0E7E0E70
:101F3800090083120313AA01AB01BA2F2908F9007B
:101F4800FA017908F2007A08F3007708F4007808B3
:101F5800F5000A128A11DE230A128A15013083124B
:101F68000313AA070318AB0A0030AB072A08760741
:101F7800F9007908840083130008A9002908031DC3
:101F8800C62FC72FA22F0800720873040319CD2F7C
:101F9800CE2FFB2F0130F600DA2F01300310F20D9F
:101FA800F30DFF3E031DD22F0130F607F31FDD2F7F
:101FB800DE2FD12F73087502031DE42F72087402F7
:101FC800031CE72FE82FEE2F7208F4027308031C96
:101FD800F503F50201300310F30CF20CFF3E031D6C
:101FE800EF2F0130F602031DFA2FFB2FDE2F7508A5
:081FF800F3007408F200080078
:04400E00F22FFF3F4F
:00000001FF
