:060000000A128A11FC2F18
:100E2400831603138801831203138801013083128C
:100E3400031388000230F2008630F1009930F0008C
:100E4400F00B222FF10B222FF20B222F02308312F0
:100E5400031388000230F2008630F1009930F0006C
:100E6400F00B322FF10B322FF20B322F043083129E
:100E7400031388000230F2008630F1009930F0004C
:100E8400F00B422FF10B422FF20B422F083083124A
:100E9400031388000230F2008630F1009930F0002C
:100EA400F00B522FF10B522FF20B522F10308312F2
:100EB400031388000230F2008630F1009930F0000C
:100EC400F00B622FF10B622FF20B622F2030831292
:100ED400031388000230F2008630F1009930F000EC
:100EE400F00B722FF10B722FF20B722F4030831222
:100EF400031388000230F2008630F1009930F000CC
:100F0400F00B822FF10B822FF20B822F8030831291
:100F1400031388000230F2008630F1009930F000AB
:100F2400F00B922FF10B922FF20B922F4030831281
:100F3400031388000230F2008630F1009930F0008B
:100F4400F00BA22FF10BA22FF20BA22F2030831251
:100F5400031388000230F2008630F1009930F0006B
:100F6400F00BB22FF10BB22FF20BB22F1030831211
:100F7400031388000230F2008630F1009930F0004B
:100F8400F00BC22FF10BC22FF20BC22F08308312C9
:100F9400031388000230F2008630F1009930F0002B
:100FA400F00BD22FF10BD22FF20BD22F043083127D
:100FB400031388000230F2008630F1009930F0000B
:100FC400F00BE22FF10BE22FF20BE22F023083122F
:100FD400031388000230F2008630F1009930F000EB
:100FE400F00BF22FF10BF22FF20BF22F182F0A1243
:0C0FF4008A11002883010A128A11122FB2
:04400E00F12FFF3F50
:00000001FF
