:060000000A128A110C280F
:10000800FE00030EF2000A08F3000A128A111F28E4
:100018000A128A110F280A128A11BD200A128A119F
:10002800F6000A128A11BE200A128A11F70083010B
:100038000A128A115628831203138C1C2428252897
:100048004F288C1007150330F1007630F000F00BC4
:100058002B28F10B2B2800007608183EF4007708AF
:100068000318013EFC3EF50043282130F000F00B58
:100078003B283230F4020030031CF503F50200304F
:10008800750233300319740203184B284C28392899
:1000980083120313071173088A00720E8300FE0E81
:1000A8007E0E09000A128A11AE200A128A110A125B
:1000B8008A119A200A128A110A128A1183200A12B6
:1000C8008A11831203132108A6002008A5008B13A8
:1000D8002508E83EF60026080318013E033EF7000F
:1000E8008B17343083120313A400F130A300A30B41
:1000F8007B28A40B7B2860280A128A110C280F3051
:1001080083120313A200A20B87288A2883120313E1
:100118009F149F18902891288D281E08A1008316E7
:1001280003131E0883120313A00008008316031389
:100138000711831203130711F93083160313920072
:100148004F30831203139200831603138C140B177A
:100158008B1708000130831603178800890183165E
:100168000313051480309F000130831203139F008E
:060178000800E834033426
:04400E00F12FFF3F50
:00000001FF
