:060000000A128A11FC2F18
:100F4A0001308316031788008901831603130514D9
:100F5A000130831203139F008030831603139F000E
:100F6A0008000D30F200F20BB82F831203139F14FE
:100F7A009F18C02FC12FBD2F1E08F100831603131F
:100F8A001E08F0000800831603130711F9309200B7
:100F9A000C30831203139700053092000A128A114B
:100FAA00A5270A128A110A128A11B6270A128A1169
:100FBA007108F6007008F5007608F4007508F30069
:100FCA000310F40CF30C0310F40CF30C73088312E3
:100FDA00031395000D30F400FB30F300F30BF32FED
:100FEA00F40BF32FF82FD82F0A128A110028830145
:060FFA000A128A11C82F43
:04400E00F22FFF3F4F
:00000001FF
