:060000000A128A11EE2F26
:100F46003F3406345B344F3466346D347D340734B5
:100F56007F346F3477347C3439345E347934713489
:100F66007E088A007F0882000A128A11B3270A12B5
:100F76008A118000840A04087D0603190034FF0ADA
:100F86000319FE0AB72F831603138801831203136E
:100F96008801F3017308203E84008313000883123E
:100FA600031388000330F2008A30F1005530F00058
:100FB600F00BDB2FF10BDB2FF20BDB2FE22F0130D7
:100FC600F30710307302031CE92FEA2FCD2FCC2F25
:100FD6000A128A11002883133030FD000730FE0004
:100FE600A330FF00203084000A128A11B7270A12A4
:0A0FF6008A1183010A128A11C62F26
:04400E00F22FFF3F4F
:00000001FF
