:060000000A128A11FC2F18
:100CB4008312031308143508F1003408F0000A12F3
:100CC4008A117B260A128A1183120313081020301A
:100CD400B6004E30B70034083602F0003508031C65
:100CE400350A3702F1000A128A117B260A128A1188
:100CF40008007108F3007008F2000310F30CF20C02
:100D04007208F4007308F500F201F301740872022A
:100D1400F6007508031C750A7302F700303083125D
:100D24000313900077088F0076088E000C101014BF
:100D34000C1C9D2E9E2E9A2E10100800831603174D
:100D44008801890183160313880183120313081091
:100D5400003083120313B800B900B430BA00003075
:100D6400BB000A128A114F270A128A11B430831267
:100D74000313B8000030B9000030BA00BB000A12F7
:100D84008A114F270A128A11AA2E0A128A110028E0
:100D940083120313B3000030A3000030A20000301C
:100DA400A100B430A0003308AF00B001B101B2011A
:100DB4003208F3003108F2003008F1002F08F00087
:100DC4000030F7000030F6000730F500D030F400B2
:100DD4000A128A1109270A128A117308831203134B
:100DE400A7007208A6007108A5007008A4000A12E2
:100DF4008A1196270A128A11831203132008F43EDB
:100E0400AD0021080318013E013EAE000800003089
:100E1400FC000030FB000030FA000030F900701CC8
:100E2400142F152F2C2F7408F907750803110318B4
:100E3400013E03191E2FFA07760803110318013E19
:100E44000319252FFB07770803110318013E031923
:100E54002C2FFC070130F8000310F40DF50DF60DEE
:100E6400F70DF80B2E2F01300310F30CF20CF10CDC
:100E7400F00CFF3E031D362F7308720471047004D6
:100E8400031D452F462F112F7C08F3007B08F20029
:100E94007A08F1007908F0000800831203133B0874
:100EA400803ABC003908803A3C02031D5B2F3808A5
:100EB4003A0203185E2F5F2F662FFD30831203134F
:100EC400BD00FF30BE006C2F033083120313BD003E
:100ED4000030BE003908C0003808BF003F080A12BD
:100EE4008A11CA260A128A11831203132E08B50026
:100EF4002D08B4000A128A115A260A128A11831282
:100F040003133B084006031D892F3A083F06031DBF
:100F14008C2F8D2F8E2F952F3D08BF070318C00AE5
:100F24003E08C007702F0800003083120313AB0083
:100F34000030AA000030A9000030A80023082204D1
:100F4400210420040319A72FA82FF32F0130AC008C
:100F5400B62F0130FD000310A00DA10DA20DA30DAD
:100F6400FD0BAD2F0130AC07A31FB92FBA2FAB2F48
:100F74000130FD000310A80DA90DAA0DAB0DFD0B4A
:100F8400BC2F23082702031DD12F22082602031D8C
:100F9400D12F21082502031DD12F20082402031C70
:100FA400D42FD52FE42F2008A4022108031C210FDD
:100FB400A5022208031C220FA6022308031C230FE8
:100FC400A702281401300310A30CA20CA10CA00C3E
:100FD400FF3E031DE52F0130AC02031DF22FF32F5A
:100FE400BA2F2B08A3002A08A2002908A100280868
:0C0FF400A000080083010A128A11A02E40
:04400E00F22FFF3F4F
:00000001FF
