:100000000A128A11D12F00308A000408840A82075C
:1000100000342034473441344E344F3420344A3491
:1000200055344734413444344F345234203431341D
:10003000203400342034473441344E344F3420349B
:100040004A3455344734413444344F3452342034E4
:1000500032342034003420342034463449344E3491
:100060002034443445344C3420344A3455344534F7
:1000700047344F34203400342034203420342034AA
:10008000473441344E34413444344F3452342034B4
:1000900020342034203400342034203420344A34B6
:1000A00055344734413444344F345234203431349D
:1000B00020342034203400342034203420344A3496
:1000C00055344734413444344F345234203432347C
:1000D00020342034203400344A3431343A34253446
:1000E0007534203420342034203420344A343234DF
:1000F0003A342534753400342034203450344934B3
:100100004E344734203450344F344E344734203446
:100110002034003420342034203420344D34413411
:1001200052344334413444344F3452340034203454
:1001300020344C344934533454344F3453343F34E2
:10014000203420340034F300F401AD280A128A155B
:10015000D0270A128A110130F40773087402031CB5
:10016000B228B328A6280800700871040319B9281A
:10017000BA28E7280130F400C62801300310F00D3A
:10018000F10DFF3E031DBE280130F407F11FC92801
:10019000CA28BD2871087302031DD0287008720296
:1001A000031CD328D428DA287008F2027108031C33
:1001B000F303F30201300310F10CF00CFF3E031DBA
:1001C000DB280130F402031DE628E728CA2873085B
:1001D000F1007208F00008000A128A1517260A12A8
:1001E0008A11F3017308831203136F07F0000030C4
:1001F0000A128A1556270A128A110130F3070330B2
:100200007302031C04290529F228F40174088312DF
:1002100003136E07F00007300A128A1556270A12D8
:100220008A110130F40703307402031C18291929BC
:100230000629831203136C08F0006D080A128A1550
:1002400056270A128A110800FA01FB017608770482
:1002500003192B292C2961290130FC003829013090
:100260000310F60DF70DFF3E031D30290130FC078A
:10027000F71F3B293C292F2901300310FA0DFB0DF4
:10028000FF3E031D3D2977087902031D49297608A1
:100290007802031C4C294D2954297608F802770866
:1002A000031CF903F9027A1401300310F70CF60C61
:1002B000FF3E031D55290130FC02031D6029612901
:1002C0003C297B08F7007A08F600080000300A1283
:1002D0008A11B2210A128A1101300A128A11B2213E
:1002E0000A128A1108300A128A11B2210A128A11DE
:1002F00000300A128A11B2210A128A118230F600E5
:100300000A128A15E8260A128A110C300A128A117A
:10031000B2210A128A1100300A128A11B2210A127D
:100320008A11473083120313B0006430B1006908AA
:10033000C300C4014308B2004408B3006808C50004
:10034000C6014508B4004608B5000A128A15C5263C
:100350000A128A114730F6000A128A15A5260A12D7
:100360008A110800F50083120313620884008317C2
:10037000631C83130130F30064080739013EC2296E
:100380000310F30DFF3E031DC0297308FF3A8005DB
:1003900075080A128A119A240A128A118312031309
:1003A000620884008317631C83130130F300640C1C
:1003B000F400F40C740C0739013EE0290310F30D2E
:1003C000FF3E031DDE29730880040B30F400623009
:1003D000F300F30BE929F40BE9290000831203135E
:1003E000620884008317631C83130130F300640CDC
:1003F000F400F40C740C0739013E002A0310F30DCD
:10040000FF3E031DFE297308FF3A80050800F50032
:1004100083120313620884008317631C8313013063
:10042000F30064080739013E172A0310F30DFF3E5D
:10043000031D152A730880047508F30004300310A7
:10044000F30CFF3E031D1F2A73080F390A128A118D
:100450009A240A128A1183120313620884008317F4
:10046000631C83130130F300640CF400F40C740C6F
:100470000739013E3D2A0310F30DFF3E031D3B2AC1
:10048000730880041A30F300F30B442A000083122F
:100490000313620884008317631C83130130F30085
:1004A000640CF400F40C740C0739013E592A031053
:1004B000F30DFF3E031D572A7308FF3A80057508A8
:1004C0000F390A128A119A240A128A11831203130D
:1004D000620884008317631C83130130F300640CEB
:1004E000F400F40C740C0739013E782A0310F30D64
:1004F000FF3E031D762A730880041A30F300F30BC5
:100500007F2A000083120313620884008317631C90
:1005100083130130F300640CF400F40C740C0739FD
:10052000013E942A0310F30DFF3E031D922A730827
:10053000FF3A80050800720873040319A02AA12A53
:10054000A72A72087304031DA62AA72AAE2A7008D8
:100550000A128A1503260A128A11342B7208093EE0
:10056000F40073080318013E003EF500740884008F
:100570008317751C83130008F600840A0008F7002F
:10058000760877040319C52AC62AF82A7208093E94
:10059000F40073080318013E003EF500740884005F
:1005A0008317751C83130008F600840A0008F700FF
:1005B0007208023EF80073080318013E003EF9007D
:1005C000780884008317791C83130008FA00840AD2
:1005D0000008FB007B08803AFC007708803A7C0228
:1005E000031DF42A76087A020318F72AF82A342B16
:1005F000720884008317731C83130008F400840AB4
:100600000008F5007208023EF60073080318013E68
:10061000003EF700760884008317771C83130008D8
:100620007407F9007508F8000318F80A801F192BE1
:10063000F8037808FA007908840083177A1C83137A
:10064000700880007208023EF40073080318013E2F
:10065000003EF500740884008317751C8313013075
:100660008007840A0318800A080062308400760834
:1006700083138000840A77088000840A7808800049
:10068000840A79088000840A7A0880000030831286
:1006900003136306031D4E2B05306206031D512B09
:1006A000522B562B831603138501712B00306306E2
:1006B000031D5C2B06306206031D5F2B602B642B31
:1006C000831603138601712B00306306031D6A2B0A
:1006D00007306206031D6D2B6E2BE12B831603136F
:1006E00087013430FC00F130FB00FB0B752BFC0B59
:1006F000752B7A2B03300A128A11B2210A128A1141
:100700000D30FC00FB30FB00FB0B842BFC0B842B1F
:10071000892B03300A128A11B2210A128A112A3057
:10072000FC008D30FB00FB0B932BFC0B932B982BC9
:1007300003300A128A11B2210A128A1102300A12F7
:100740008A11B2210A128A1102300A128A11B221C8
:100750000A128A1108300A128A11B2210A128A1169
:1007600000300A128A11B2210A128A1106300A12C6
:100770008A11B2210A128A110830FD007D157D0808
:10078000FB0004300310FB0CFF3E031DC22B7B0853
:100790000F390A128A11B2210A128A117D080F3903
:1007A0000A128A11B2210A128A1100300A128A1121
:1007B000B2210A128A1101300A128A11B2210A12D8
:1007C0008A110800831603178801890103308316F4
:1007D00003138500860187018801890183120313B1
:1007E0008501FF30860087018801890109100A12FE
:1007F0008A1526260A128A1176308400831603137E
:100800004C088000840A4D088000840A4E0880004D
:10081000840A4F088000840A500880000A128A1156
:1008200035230A128A1100300A128A11B2210A12E3
:100830008A1101300A128A11B2210A128A11083073
:100840000A128A11B2210A128A1100300A128A1180
:10085000B2210A128A117430F6000A128A15E826AB
:100860000A128A110C300A128A11B2210A128A1154
:1008700000300A128A11B2210A128A118F30F60052
:100880000A128A15E8260A128A11103083120313FD
:10089000E1003930E0000D30DF00DF0B4D2CE00BC4
:1008A0004D2CE10B4D2C0A128A1166210A128A1175
:1008B00000300A128A15A5270A128A11831203131F
:1008C000EF0001300A128A15A5270A128A11831235
:1008D0000313EE000A128A11EC200A128A111E304C
:1008E0000A128A11A3200A128A110A128A115425A7
:1008F0000A128A110330831203136902031C812C2C
:10090000822C882C01300A128A11E7260A128A11D9
:100910000330831203136802031C8F2C902C582C75
:1009200002300A128A11E7260A128A11582C0A127A
:100930008A110028F200721C9E2C9F2CB42C83126A
:100940000313620884008317631C83130130F000D3
:1009500065080739013EAE2C0310F00DFF3E031D64
:10096000AC2C70088004C92C831203136208840025
:100970008317631C83130130F00065080739013EBB
:10098000C32C0310F00DFF3E031DC12C7008FF3A6D
:100990008005F21CCC2CCD2CE32C6208840083173C
:1009A000631C83130130F000650CF100F10C710C35
:1009B0000739013EDD2C0310F00DFF3E031DDB2C3B
:1009C00070088004F92C620884008317631C831369
:1009D0000130F000650CF100F10C710C0739013E9B
:1009E000F32C0310F00DFF3E031DF12C7008FF3AAD
:1009F0008005721DFC2CFD2C102D620884008317CD
:100A0000631C83130130F00066080739013E0A2D8C
:100A10000310F00DFF3E031D082D70088004232DE8
:100A2000620884008317631C83130130F00066089A
:100A30000739013E1D2D0310F00DFF3E031D1B2D38
:100A40007008FF3A8005F21D262D272D3D2D6208E6
:100A500084008317631C83130130F000660CF100DF
:100A6000F10C710C0739013E372D0310F00DFF3EDC
:100A7000031D352D70088004532D620884008317F0
:100A8000631C83130130F000660CF100F10C710C53
:100A90000739013E4D2D0310F00DFF3E031D4B2D78
:100AA0007008FF3A80050800831203136B086D0776
:100AB000DD006A086C07DE00DE1F5F2D602D632DF0
:100AC000DE010130EA005E08803A783E031C692DA1
:100AD0006A2D6E2D0730DE00FF30EA005D08031D31
:100AE000722D732DA72D5E08D800D901D81BD9030C
:100AF0005908803ADA0080305A02031D812D6F08B0
:100B00005802031C842D852DA72D831203136F0813
:100B1000033ED800003003180130D9005E08DA0027
:100B2000DB01DA1BDB035B08803ADC005908803A02
:100B30005C02031D9D2D58085A020318A02DA12DFB
:100B4000A72D013083120313EB000130DD000730C5
:100B5000831203135D06031DAE2DAF2DE32D5E083A
:100B6000D800D901D81BD9035908803ADA0080305F
:100B70005A02031DBD2D6E085802031CC02DC12D45
:100B8000E32D831203136E08033ED80000300318D0
:100B90000130D9005E08DA00DB01DA1BDB035B08F9
:100BA000803ADC005908803A5C02031DD92D5808B0
:100BB0005A020318DC2DDD2DE32DFF3083120313C1
:100BC000EB000630DD00831203135D08ED005E08C4
:100BD000EC00ED1FEC2DED2DFF2D0130E8070A1282
:100BE0008A155B260A128A110A128A1166210A12D4
:100BF0008A1101300A128A156F260A128A1183128D
:100C000003136D08803A783E031C072E082E1A2E17
:100C10000130E9070A128A155B260A128A110A12A4
:100C20008A1166210A128A11FF300A128A156F266C
:100C30000A128A1108008312031322088400000894
:100C400084000A128A1103200A128A11253A031D10
:100C50002A2E2B2ECD2E22088400013080078316E9
:100C60000313C801C901003083120313E700FF30EA
:100C700083160313CA00FF30CB008312031322082C
:100C800084000008AA002A0884000A128A1103209E
:100C90000A128A11753A031D4E2E4F2EC62E2308B6
:100CA000840083130008A400023080072408840015
:100CB0000008A600840A0008A700220884002A0869
:100CC000013E8000BB2E2030AB000130AB022B0870
:100CD000A03E84000A30F0000030F1002708F30045
:100CE0002608F2000A128A11B4200A128A1170082A
:100CF000303E831380000A30F6000030F700831284
:100D000003132708F9002608F8000A128A11242183
:100D10000A128A11770883120313A7007608A60027
:100D2000260827040319952E962EB42E2B08031D92
:100D30009A2E9B2E652EB42E2B08A03E8400831382
:100D40000008A400A5012408F0002508F1002008EF
:100D5000F2002108F3000A128A119B220A128A115A
:100D6000013083120313AB0720302B06031DB92E6D
:100D7000BA2E9C2EE62E2A0884000A128A1103201D
:100D80000A128A11753A0319632EC62E83120313B1
:100D90002208840001308007E62E22088400000823
:100DA00084000A128A1103200A128A11A400A501E4
:100DB0002408F0002508F1002008F2002108F300C3
:100DC0000A128A119B220A128A11C62E0800831267
:100DD0000313D8000A128A1536260A128A110A123B
:100DE0008A157D270A128A1100300A128A11B2214F
:100DF0000A128A1101300A128A11B2210A128A11CA
:100E000008300A128A11B2210A128A1100300A121D
:100E10008A11B2210A128A113430F6000A128A1598
:100E2000E8260A128A110C300A128A11B2210A121B
:100E30008A1100300A128A11B2210A128A11831211
:100E400003135803031D252F262F2E2F4430F600A1
:100E50000A128A15E8260A128A11352F5430F60034
:100E60000A128A15E8260A128A1183120313D9017D
:100E70000A128A15D0270A128A110130831203132D
:100E8000D907C8305902031C462F472F382FDA01E3
:100E900000300A128A11B2210A128A1101300A1294
:100EA0008A11B2210A128A1108300A128A11B2215B
:100EB0000A128A1100300A128A11B2210A128A110A
:100EC0002330F6000A128A15E8260A128A110C301D
:100ED0000A128A11B2210A128A1100300A128A11EA
:100EE000B2210A128A11831203135803031D792FAA
:100EF0007A2F822F0130F6000A128A15E8260A128C
:100F00008A11892F1230F6000A128A15E8260A1271
:100F10008A1183120313DB010A128A15D0270A12E1
:100F20008A11013083120313DB0750305B02031C6C
:100F30009A2F9B2F8C2F00300A128A11B2210A128D
:100F40008A1101300A128A11B2210A128A118312FF
:100F50000313DC010A128A15D0270A128A11013004
:100F600083120313DC0750305C02031CB82FB92F27
:100F7000AA2F0130DA0705305A02031CC02FC12FF7
:100F8000482FE901E8010330ED000330EC000130A7
:100F9000EB000130EA000A128A1166210A128A1156
:100FA00008008313D130FD000E30FE000430FF0036
:100FB000CC3084000A128A154C260A128A1170302D
:100FC000FD000E30FE000930FF006A3084000A1276
:100FD0008A154C260A128A11A0308400CC300A12DD
:100FE0008A150F260A128A11623084006A300A12AA
:100FF0008A150F260A128A1183010A128A11E22B1E
:101C06000800073400341A342C343E3401340134CD
:101C1600033403340234023464008001840A040667
:101C2600031900340406102EF0017008C03E84002B
:101C3600831380010130F00708307002031C242E44
:101C4600252E182E080003308316031788008901F5
:101C5600831603130514851480309F000130831208
:101C660003139F0008003C3083160313C000FF30A7
:101C7600C100BD30C2003C30C3001830C4003C3047
:101C8600C5007E30C600C70108007E088A007F08AE
:101C960082000A128A1548260A128A158000840ACA
:101CA60004087D0603190034FF0A0319FE0A4C2EA8
:101CB6008312031309140430F2000C30F1003330A0
:101CC600F000F00B642EF10B642EF20B642E6B2EDB
:101CD6008312031309100800F5000330831203135F
:101CE600ED000330EC007508EB006A08031D7C2E3E
:101CF6007D2E7F2E0130EA0064300A128A11A3205D
:101D06000A128A150800F3007308F200F20DF20DAC
:101D1600831203131F087206C33972069F0013301D
:101D2600F200F20B942E972E831203139F149F1822
:101D36009D2E9E2E9A2E1E08F100831603131E0852
:101D4600F0000800F801F901B92E78087607F700C7
:101D56007708840000080A128A1107220A128A15D7
:101D66000130F8070318F90A0030F90778087607F2
:101D7600F7007708840083130008031DC32EC42EC2
:101D8600A82E0800323083120313B7003008B800BB
:101D96000030B900BA01BB01C101C2013830AC0044
:101DA6000030AD003108AE003730AF000A128A1598
:101DB6000C270A128A15831203133A083007B60055
:101DC60036088400831380010800F701F801FE2E0F
:101DD6007708760784000A128A1103200A128A15E8
:101DE6000A128A1107220A128A150130F707031808
:101DF600F80A0030F8077708760784000A128A1175
:101E060003200A128A15003A031D0A2F0B2FEB2E08
:101E16000800831203132E08FD00202F83120313DC
:101E26002C08A0002D08A1007D30A2002F08A300D9
:101E36000A128A111B260A128A157D0884000A12C4
:101E46008A1103200A128A15003A031D2B2F2C2F04
:101E5600112F83120313AC01AD010800F401F50143
:101E6600701C362F372F3D2F7208F4070318F50A1A
:101E76007308F50701300310F20DF30DFF3E031D45
:101E86003E2F01300310F10CF00CFF3E031D452FD1
:101E960070087104031D502F512F332F7508F10060
:101EA6007408F0000800F200F21B5A2F5B2F7C2FFB
:101EB6007208803A783E0318612F622F7C2FF01B40
:101EC600652F662F7C2F7008803A783E03186C2F9A
:101ED6006D2F7C2F7008C03E84000130F100720A1D
:101EE600762F0310F10DFF3E031D742F7108831327
:101EF60080040800F3018312031309140330F2006F
:101F06000830F1007730F000F00B872FF10B872FA8
:101F1600F20B872F8312031309100230F20086306A
:101F2600F1009930F000F00B962FF10B962FF20B83
:101F3600962F0130F30703307302031CA32FA42F3F
:101F46007E2F080083120313A20022080A128A15A4
:101F560086260A128A15710883120313A1007008D7
:101F6600A000FF30F6000330F7002108F10020083A
:101F7600F0000530F2000030F3000A128A1531270E
:101F86000A128A157108F9007008F8000A128A11F7
:101F960024210A128A1576080800F2010830720216
:101FA600031CD62FD72FD82FFA2F8312031388019D
:101FB600FF3086000130F000720AE32F0310F00DA7
:101FC600FF3E031DE12F700888007208C03E8400A2
:101FD6008313000986000330F1009730F000F00B00
:101FE600F22FF10BF22FF72F0130F207D12F8312C8
:0A1FF60003138801FF308600080085
:04400E00F22FFF3F4F
:00000001FF
