:060000000A128A11FC2F18
:100EE000831603130711F93092000C308312031399
:100EF0009700043092009501080001308316031713
:100F0000880089014130831203139F0080308316CB
:100F100003139F0008000D30F200F20B8D2F831297
:100F200003139F149F18952F962F922F1E08F100E0
:100F3000831603131E08F00008000A128A117D2789
:100F40000A128A110A128A1170270A128A110A12C9
:100F50008A118B270A128A117108F8007008F700AD
:100F60007808F1007708F0000A128A11C6270A12E1
:100F70008A111A30F600F830F500F50BBD2FF60B8C
:100F8000BD2F0000A72F0A128A1100280430710219
:100F9000003003197002031CCE2FCF2FD32FFF3048
:100FA000F0000330F1007108F3007008F200031044
:100FB000F30CF20C0310F30CF20C720883120313FF
:100FC00095007108F3007008F2000310F30CF20CA6
:100FD00072080139F400F40EF40D17087406DF39B5
:100FE0007406970070080139F200F20E17087206B5
:100FF000EF3972069700080083010A128A119D2FAB
:04400E00F12FFF3F50
:00000001FF
