:100000000A128A11C42F0800CC30840076088313AA
:100010008000840A77088000840A78088000840AB7
:1000200079088000840A7A08800000308316031360
:100030004D06031D1D2805304C06031D20282128D0
:10004000232885013A2800304D06031D2928063053
:100050004C06031D2C282D282F2886013A28003015
:100060004D06031D352807304C06031D3828392856
:10007000AA2887013430FC00F130FB00FB0B3E283E
:10008000FC0B3E28432803300A128A15A7240A12C3
:100090008A110D30FC00FB30FB00FB0B4D28FC0BE4
:1000A0004D28522803300A128A15A7240A128A11F1
:1000B0002A30FC008D30FB00FB0B5C28FC0B5C281D
:1000C000612803300A128A15A7240A128A11023005
:1000D0000A128A15A7240A128A1102300A128A15F6
:1000E000A7240A128A1108300A128A15A7240A12B4
:1000F0008A1100300A128A15A7240A128A110630C2
:100100000A128A15A7240A128A110830FD007D15EB
:100110007D08FB0004300310FB0CFF3E031D8B2801
:100120007B080F390A128A15A7240A128A117D0842
:100130000F390A128A15A7240A128A1100300A12EE
:100140008A15A7240A128A1101300A128A15A724D7
:100150000A128A1108000C300A128A15A7240A1202
:100160008A1100300A128A15A7240A128A11013056
:10017000F6000A128A15E9220A128A110C300A12B4
:100180008A15A7240A128A1100300A128A15A72498
:100190000A128A1183120313EA1FCF28D028E328FA
:1001A0002D300A128A157F250A128A118312031331
:1001B000E709E809E909EA09E70A0319E80A03195E
:1001C000E90A0319EA0A0030A3000030A200003057
:1001D000A1006430A0006A08A7006908A6006808AA
:1001E000A5006708A4000A128A1513260A128A11AC
:1001F00083120313230883160313B300831203131C
:10020000220883160313B2008312031321088316F6
:100210000313B10083120313200883160313B000E5
:100220000030F3000030F2000030F1006430F000E4
:10023000831203136A08F7006908F6006808F500DE
:100240006708F4000A128A15FC240A128A1173083E
:1002500083160313B7007208B6007108B500700862
:10026000B400A03083120313D0002230D1008316D3
:100270000313330883120313D500831603133208C4
:1002800083120313D400831603133108831203135C
:10029000D30083160313300883120313D20083168E
:1002A0000313370883120313D90083160313360888
:1002B00083120313D8008316031335088312031324
:1002C000D70083160313340883120313D6000A12CF
:1002D0008A15C6220A128A11A030F6000A128A155F
:1002E00083220A128A110800013083120313B70017
:1002F000B41B7B297D2901307E290030BA0083168A
:1003000003135A0883120313B90083160313590801
:1003100083120313B8003A0803198F299029A629DC
:10032000FF30B8070318B90AFF30B9073A08031DB0
:100330009A299B29A0292B30B5000030B600A429AA
:100340002D30B5000030B6003508BA001F30BB00B4
:100350000030BC0083160317AF01012AFF30BB0732
:100360000318BC0AFF30BC073B08903E84000030F5
:10037000F3000030F2000030F1000A30F0003408E1
:10038000F7003308F6003208F5003108F4000A12CD
:100390008A15FC240A128A117108FC007008FB00FF
:1003A0000A128A1570220A128A117B08303E8317BE
:1003B000800083120313B701FF30B8070318B90A8E
:1003C000FF30B9070030A3000030A2000030A100C8
:1003D0000A30A0003408A7003308A6003208A500A0
:1003E0003108A4000A128A1513260A128A118312F0
:1003F00003132308B4002208B3002108B200200828
:10040000B100831203133C08803AFF0080307F0262
:10041000031D0C2A01303B02031C0F2A102A322A2A
:10042000831203133408330432043104031D192AE0
:100430001A2AAE293708031D1E2A1F2AAE29390899
:10044000803AFF0080307F02031D282A01303802E5
:10045000031C2B2A2C2A322A83120313EB18312A6D
:10046000322AAE29831203133A080319382A392A8B
:10047000452AFF30BB070318BC0AFF30BC073B0806
:10048000903E84003A08831780002F08A8003008A7
:10049000A9003B08903EAA003908AC003808AB0020
:1004A0000A128A1501240A128A1108008312031302
:1004B0003F0884008313000884000A128A15002074
:1004C0000A128A11253A031D662A672A432B3F0820
:1004D00084000130800783160313D901DA0100304C
:1004E00083120313EB00FF3083160313DB00FF308E
:1004F000DC0083120313C801932AEB143F08840025
:1005000001308007932A0130C800932A3F088400F5
:10051000000884000A128A1500200A128A11303A53
:1005200003197D2A832A48080319972A982A862ABC
:100530003F08F6004008F7000A128A1554240A12F0
:100540008A11770883160313DA007608D900DA1FB8
:10055000AA2AAB2AB52A831203136B14831603133A
:10056000D909DA09D90A0319DA0A831203133F08F1
:10057000840083130008CA004A0884000A128A15FE
:1005800000200A128A11C900CD2A0130CA07D82AD0
:100590006930C900D82AC901D82A4908643A031920
:1005A000C82A0D3A0319C82A053A0319C52ACB2AC5
:1005B0004A0884000A128A1500200A128A11643A35
:1005C0000319E32AE42A1C2B4A0884000A128A151C
:1005D00000200A128A11693A031DEF2AF02A3B2BE8
:1005E0001C2B400884000008C1000230800741082D
:1005F00084000008C200840A0008C3004208C40046
:100600004308C5000030C51BFF30C600C700242BBF
:10061000400884000008C1000430800741088400BD
:100620000008C400840A0008C500840A0008C60047
:10063000840A0008C700242B4908693A0319F12AE3
:10064000053A0319082B242B3F0884004A08013E71
:1006500080003D08AF003E08B0004708B4004608DF
:10066000B3004508B2004408B1000A128A1174218F
:100670000A128A115C2B831203133F088400013095
:10068000831380075C2B3F088400000884000A1253
:100690008A1500200A128A11C100C2014108F00027
:1006A0004208F1003D08F2003E08F3000A128A15E4
:1006B000AC260A128A113B2B080083120313061082
:1006C000861406158615061A662B672B7C2B0230BE
:1006D000F2000430F100BA30F000F00B6D2BF10B9A
:1006E0006D2BF20B6D2B000083120313061E792B6A
:1006F0007A2B742B3130002D861A7F2B802B952B73
:100700000230F2000430F100BA30F000F00B862B1A
:10071000F10B862BF20B862B000083120313861E2F
:10072000922B932B8D2B3230002D061B982B992B5F
:10073000AE2B0230F2000430F100BA30F000F00BC2
:100740009F2BF10B9F2BF20B9F2B000083120313A7
:10075000061FAB2BAC2BA62B3330002D861BB12BE9
:10076000B22BC72B0230F2000430F100BA30F00097
:10077000F00BB82BF10BB82BF20BB82B0000831247
:100780000313861FC42BC52BBF2B4130002D06142D
:10079000861006158615061ACE2BCF2BE42B0230B9
:1007A000F2000430F100BA30F000F00BD52BF10B61
:1007B000D52BF20BD52B000083120313061EE12B61
:1007C000E22BDC2B3430002D861AE72BE82BFD2B97
:1007D0000230F2000430F100BA30F000F00BEE2BE2
:1007E000F10BEE2BF20BEE2B000083120313861E8F
:1007F000FA2BFB2BF52B3530002D061B002C012C82
:10080000162C0230F2000430F100BA30F000F00B88
:10081000072CF10B072CF20B072C0000831203139B
:10082000061F132C142C0E2C3630002D861B192C71
:100830001A2C2F2C0230F2000430F100BA30F000F4
:10084000F00B202CF10B202CF20B202C000083123B
:100850000313861F2C2C2D2C272C4230002D061420
:10086000861406118615061A362C372C4C2C0230AD
:10087000F2000430F100BA30F000F00B3D2CF10B27
:100880003D2CF20B3D2C000083120313061E492C55
:100890004A2C442C3730002D861A4F2C502C652CB6
:1008A0000230F2000430F100BA30F000F00B562CA8
:1008B000F10B562CF20B562C000083120313861EEC
:1008C000622C632C5D2C3830002D061B682C692CA3
:1008D0007E2C0230F2000430F100BA30F000F00B50
:1008E0006F2CF10B6F2CF20B6F2C00008312031393
:1008F000061F7B2C7C2C762C3930002D861B812CFE
:10090000822C972C0230F2000430F100BA30F00053
:10091000F00B882CF10B882CF20B882C0000831232
:100920000313861F942C952C8F2C4330002D061416
:10093000861406158611061A9E2C9F2CB42C0230A4
:10094000F2000430F100BA30F000F00BA52CF10BEE
:10095000A52CF20BA52C000083120313061EB12C4C
:10096000B22CAC2C2A30002D861AB72CB82CCD2CEA
:100970000230F2000430F100BA30F000F00BBE2C6F
:10098000F10BBE2CF20BBE2C000083120313861E4B
:10099000CA2CCB2CC52C3030002D061BD02CD12CD2
:1009A000E62C0230F2000430F100BA30F000F00B17
:1009B000D72CF10BD72CF20BD72C0000831203138A
:1009C000061FE32CE42CDE2C2330002D861BE92CA3
:1009D000EA2CFF2C0230F2000430F100BA30F000B3
:1009E000F00BF02CF10BF02CF20BF02C000083122A
:1009F0000313861FFC2CFD2CF72C4430002D6E3089
:100A000008008316031788018901BE30840083160D
:100A100003135D0883138000840A5E088000840A43
:100A20005F088000840A60088000840A61088000F2
:100A3000763084003E088000840A3F088000840AE3
:100A400040088000840A41088000840A420880002F
:100A50000A128A1104200A128A110A128A155022D7
:100A60000A128A110A128A158B230A128A110A1293
:100A70008A155F220A128A1183160313CB002A30CB
:100A80004B06031D442D452D462D322D30304B0293
:100A9000031C4B2D4C2DF02D3A304B020318512DD9
:100AA000522DF02D0230831203136D060319592DB8
:100AB0005A2D372D831603134B080A128A155D230E
:100AC0000A128A11831203136D08031D682D692D04
:100AD000AA2D831603134B08D03EB800FF3003182D
:100AE0000030B9003808BA003908BB00BC01BD01AC
:100AF0005808F3005708F2005608F1005508F000B6
:100B00000030F7000030F6000030F5000A30F40045
:100B10000A128A15BB230A128A117008831603135E
:100B2000BA0771080318710F962D972DBB0772082D
:100B30000318720F9C2D9D2DBC0773080318730AB0
:100B4000BD073D08D8003C08D7003B08D6003A084E
:100B5000D500372D6D03031DAE2DAF2D372D831618
:100B600003134B08D03EB800FF3003180030B90023
:100B70003808BA003908BB00BC01BD015408F300B5
:100B80005308F2005208F1005108F0000030F7005D
:100B90000030F6000030F5000A30F4000A128A1521
:100BA000BB230A128A11700883160313BA0771084F
:100BB0000318710FDC2DDD2DBB0772080318720FAF
:100BC000E22DE32DBC0773080318730ABD073D0827
:100BD000D4003C08D3003B08D2003A08D100372D9E
:100BE00041304B060319F52DF62D082E42304B06E9
:100BF0000319FB2DFC2D082E43304B060319012E43
:100C0000022E082E44304B06031D072E082E4D2EB3
:100C1000831203136D08031D0E2E0F2E372D83161E
:100C200003134B0883120313EE000130ED00413033
:100C3000831603134B06031D1E2E1F2E262E2F3048
:100C40000A128A155D230A128A11372D42304B068B
:100C5000031D2B2E2C2E332E78300A128A155D237D
:100C60000A128A11372D43304B06031D382E392EB8
:100C7000402E2D300A128A155D230A128A11372D53
:100C800044304B06031D452E462E372D2B300A12BD
:100C90008A155D230A128A11372D23304B06031D56
:100CA000522E532E372D831203136D03031D592E1D
:100CB0005A2E372D41306E06031D5F2E602EEE2E0C
:100CC000831603135408530452045104031D692E60
:100CD0006A2E7E2E0C300A128A15A7240A128A1157
:100CE00000300A128A15A7240A128A111230F6005F
:100CF0000A128A15E9220A128A11BC2F540883129B
:100D00000313A30083160313530883120313A200D3
:100D100083160313520883120313A10083160313CF
:100D2000510883120313A000831603135808F3001D
:100D30005708F2005608F1005508F0000030F7009F
:100D40000030F6000030F5006430F4000A128A1515
:100D5000BB230A128A11730883120313A7007208B7
:100D6000A6007108A5007008A4000A128A151326AF
:100D70000A128A1183120313230883160313CA006D
:100D800083120313220883160313C900831203136B
:100D9000210883160313C800831203132008831647
:100DA0000313C7004A0883120313EA0083160313D0
:100DB000490883120313E9008316031348088312BA
:100DC0000313E80083160313470883120313E70095
:100DD0000A128A11AB200A128A11BC2F42306E0609
:100DE000031DF32EF42E352F831603135808F3003A
:100DF0005708F2005608F1005508F0005408F700B3
:100E00005308F6005208F5005108F4000A128A153A
:100E1000BB230A128A11730883160313C6007208D3
:100E2000C5007108C4007008C3004608F3004508F7
:100E3000F2004408F1004308F0000030F7000030F1
:100E4000F6000030F5006430F4000A128A15BB2366
:100E50000A128A11730883160313CA007208C900A4
:100E60007108C8007008C700D22E43306E06031DFB
:100E70003A2F3B2F792F831603135508B8005608D5
:100E8000B9005708BA005808BB005108B802520808
:100E9000031C520F4C2F4D2FB9025308031C530F44
:100EA000522F532FBA025408031C540F582F592F96
:100EB000BB023B08F3003A08F2003908F100380899
:100EC000F0000030F7000030F6000030F50064302C
:100ED000F4000A128A15BB230A128A1173088316BA
:100EE0000313CA007208C9007108C8007008C7005F
:100EF000D22E44306E06031D7E2F7F2FBC2F83160B
:100F0000031355085107B800003003180130560785
:100F1000BA010318BA0A5207B9000318BA0A5708E7
:100F20003A07BB010318BB0A5307BA000318BB0AF0
:100F300058083B075407BB003B08F3003A08F2008F
:100F40003908F1003808F0000030F7000030F600F2
:100F50000030F5006430F4000A128A15BB230A122F
:100F60008A11730883160313CA007208C900710836
:100F7000C8007008C700D22E023083120313ED00A0
:100F8000372D0A128A110028831603130A128A15B4
:100F900043220A128A11DD000A128A1544220A121B
:100FA0008A11DE000A128A1545220A128A11DF0010
:100FB0000A128A1546220A128A11E0000A128A15BC
:100FC00047220A128A11E100831790308400B03062
:100FD0000A128A1548220A128A118313CC3084001F
:100FE000DD300A128A1548220A128A11831203136D
:100FF000EB01EC01ED01EE0183010A128A11012DD2
:1010000008308A000408840A82070034203420341F
:101010002034203420342034203420342034203430
:10102000203420342034203420342034003445341B
:10103000723472346F3472342034643469347634E8
:1010400020346334653472346F34203400342534F2
:101050006C3464342E342534303432346C3464349B
:0210600000345A
:10148600073400341A342C343E3464008001840A54
:101496000406031900340406492A8312031386013D
:1014A600F0308316031386008316031789017F30F5
:1014B60083160313810508006E30F300682A0A12AA
:1014C6008A115D230A128A15F3006E30730603191A
:1014D6006D2A6E2A622A73080800FC1B732A742A76
:1014E600752A822A7B0983120313A0007C09A100B6
:1014F600A00A0319A10A2008FB002108FC00080025
:10150600F801F901972A78087607F700770884002A
:1015160000080A128A157F250A128A150130F80773
:101526000318F90A0030F90778087607F7007708F4
:10153600840083130008031DA12AA22A862A080014
:10154600831203134D08CF00B52A4B08BD004C0883
:10155600BE004F30BF004E08C0000A128A11562244
:101566000A128A15831203134F0884000A128A1579
:1015760000200A128A15003A031DC22AC32AA82A85
:10158600CB01CC010800523083120313DB00500854
:10159600DC000030DD00DE01DF01E501E6015C3044
:1015A600CB000030CC005108CD005B30CE000A12D3
:1015B6008A15A3220A128A15831203135E0850079E
:1015C600DA005A088400831380010800F701F80145
:1015D600FF2A7708760784000A128A1500200A1265
:1015E6008A150A128A157F250A128A150130F7070D
:1015F6000318F80A0030F8077708760784000A12FD
:101606008A1500200A128A15003A031D0B2B0C2B93
:10161600EC2A0800F401F501701C122B132B192B70
:101626007208F4070318F50A7308F507013003106A
:10163600F20DF30DFF3E031D1A2B01300310F10CC2
:10164600F00CFF3E031D212B70087104031D2C2B8B
:101656002D2B0F2B7508F1007408F000080083127B
:101666000313A601A7014F2B2508A300A4012308F5
:10167600F0002408F1002108F2002208F3000A1203
:101686008A15AC260A128A15013083120313A6079F
:101696000318A70A0030A70726082007A300230877
:1016A600840083170008A5002508031D5B2B5C2B0F
:1016B600372B0800F7001030831203136C0203184F
:1016C600652B662B8A2B6C08803EF60004300310CF
:1016D600F60CFF3E031D6A2B76080F390A128A158F
:1016E600A7240A128A15831203136C08803E0F3949
:1016F6000A128A15A7240A128A1577080A128A1569
:101706007F250A128A15013083120313EC0708009D
:10171600003083160313D8000030D7000030D600FF
:101726000030D5000030D4000030D3000030D200A5
:101736000030D10083120313EE01ED01EC010030FD
:101746000A128A15A7240A128A1501300A128A1566
:10175600A7240A128A1508300A128A15A7240A1223
:101766008A1500300A128A15A7240A128A1508005B
:101776000030FC000030FB000030FA000030F900B9
:10178600701CC62BC72BDE2B7408F90775080311CE
:101796000318013E0319D02BFA0776080311031824
:1017A600013E0319D72BFB07770803110318013EE7
:1017B6000319DE2BFC070130F8000310F40DF50DBC
:1017C600F60DF70DF80BE02B01300310F30CF20CBD
:1017D600F10CF00CFF3E031DE82B73087204710434
:1017E6007004031DF72BF82BC32B7C08F3007B0832
:1017F600F2007A08F1007908F0000800831203135A
:101806006B1C062C072C122C2A08A0002808A10005
:101816002908A2000A128A1532230A128A1583128F
:101826000313AC1F172C182C1A2CAB01AC01AD01FD
:10183600AE01342C2030F0000030F1008312031387
:101846002808F2002908F3000A128A15AC260A12A3
:101856008A15013083120313AD070318AE0A003050
:10186600AE072E08803AFD002C08803A7D02031D43
:101876003E2C2B082D02031C412C422C1D2C8312BE
:1018860003136B18472C482C532C2A08A000280851
:10189600A1002908A2000A128A1532230A128A1503
:1018A6000800FA01FB01760884008313000884000F
:1018B6000A128A1500200A128A152A3A031D642C78
:1018C600652C912C76088400013080077708840007
:1018D6000008F80002308007780884000008FA0043
:1018E600840A0008FB00A22C7B08F1007A08F000AD
:1018F6000A30F2000030F3000A128A150D230A128C
:101906008A1579087007FA0000300318013071074C
:10191600FB00760884000130831380077608840074
:10192600000884000A128A1500200A128A15D03E81
:10193600F9000A307902031CA12CA22C772C7B0813
:10194600F7007A08F6000800F500831603134C0822
:10195600840083174D1C83130130F3004E080739AA
:10196600013EB72C0310F30DFF3E031DB52C730883
:10197600FF3A800575080A128A1546270A128A1543
:10198600831603134C08840083174D1C8313013000
:10199600F3004E0CF400F40C740C0739013ED52C00
:1019A6000310F30DFF3E031DD32C730880040B3088
:1019B600F4006230F300F30BDE2CF40BDE2C000097
:1019C600831603134C08840083174D1C83130130C0
:1019D600F3004E0CF400F40C740C0739013EF52CA0
:1019E6000310F30DFF3E031DF32C7308FF3A800529
:1019F6000800FA01F71F002D012D0E2DF409F50937
:101A0600F609F709F40A0319F50A0319F60A031980
:101A1600F70A0130FA00F31F112D122D1D2DF009C2
:101A2600F109F209F309F00A0319F10A0319F20A96
:101A36000319F30A73087204710470040319242D40
:101A4600252D662D0130F900332D0130F8000310E5
:101A5600F00DF10DF20DF30DF80B2A2D0130F907FB
:101A6600F31F362D372D282D73087702031D452DBC
:101A760072087602031D452D71087502031D452D5A
:101A860070087402031C482D492D572D7008F40266
:101A96007108031C710FF5027208031C720FF6021F
:101AA6007308031C730FF70201300310F30CF20CDA
:101AB600F10CF00CFF3E031D582D0130F902031DF9
:101AC600652D662D372D7A0803196A2D6B2D762D17
:101AD600F409F509F609F709F40A0319F50A0319D1
:101AE600F60A0319F70A7708F3007608F200750874
:101AF600F1007408F0000800F500831603134C0883
:101B0600840083174D1C83130130F3004E080739F8
:101B1600013E8F2D0310F30DFF3E031D8D2D73081F
:101B260080047508F30004300310F30CFF3E031D18
:101B3600972D73080F390A128A1546270A128A1535
:101B4600831603134C08840083174D1C831301303E
:101B5600F3004E0CF400F40C740C0739013EB52D5D
:101B66000310F30DFF3E031DB32D730880041A30D6
:101B7600F300F30BBC2D0000831603134C088400FE
:101B860083174D1C83130130F3004E0CF400F40C44
:101B9600740C0739013ED12D0310F30DFF3E031DD2
:101BA600CF2D7308FF3A800575080F390A128A157A
:101BB60046270A128A15831603134C0884008317D6
:101BC6004D1C83130130F3004E0CF400F40C740C1E
:101BD6000739013EF02D0310F30DFF3E031DEE2DD8
:101BE600730880041A30F300F30BF72D00008316F8
:101BF60003134C08840083174D1C83130130F30034
:101C06004E0CF400F40C740C0739013E0C2E031034
:101C1600F30DFF3E031D0A2E7308FF3A80050800E8
:101C260083120313A901A31F192E1A2E272EA0090A
:101C3600A109A209A309A00A0319A10A0319A20A64
:101C46000319A30A0130A900A71F2A2E2B2E382E0E
:101C5600A409A509A609A709A40A0319A50A03192F
:101C6600A60A0319A70A0130A9060030AD00003004
:101C7600AC000030AB000030AA0023082204210487
:101C860020040319472E482E932E0130A800562E05
:101C96000130FD000310A00DA10DA20DA30DFD0B3B
:101CA6004D2E0130A807A31F592E5A2E4B2E013058
:101CB600FD000310AA0DAB0DAC0DAD0DFD0B5C2E9A
:101CC60023082702031D712E22082602031D712EEA
:101CD60021082502031D712E20082402031C742EE0
:101CE600752E842E2008A4022108031C210FA502AC
:101CF6002208031C220FA6022308031C230FA70297
:101D06002A1401300310A30CA20CA10CA00CFF3E58
:101D1600031D852E0130A802031D922E932E5A2EE6
:101D260029080319972E982EA32EAA09AB09AC09E8
:101D3600AD09AA0A0319AB0A0319AC0A0319AD0ABD
:101D46002D08A3002C08A2002B08A1002A08A00039
:101D56000800720873040319B12EB22EB82E720849
:101D66007304031DB72EB82EBF2E70080A128A11EF
:101D760003200A128A15452F7208093EF4007308DB
:101D86000318013E003EF500740884008317751C95
:101D960083130008F600840A0008F7007608770423
:101DA6000319D62ED72E092F7208093EF4007308A0
:101DB6000318013E003EF500740884008317751C65
:101DC60083130008F600840A0008F7007208023E32
:101DD600F80073080318013E003EF90078088400F5
:101DE6008317791C83130008FA00840A0008FB0095
:101DF6007B08803AFC007708803A7C02031D052F99
:101E060076087A020318082F092F452F72088400D6
:101E16008317731C83130008F400840A0008F50076
:101E26007208023EF60073080318013E003EF700F2
:101E3600760884008317771C831300087407F9005B
:101E46007508F8000318F80A801F2A2FF803780887
:101E5600FA007908840083177A1C831370088000BF
:101E66007208023EF40073080318013E003EF500B6
:101E7600740884008317751C831301308007840A55
:101E86000318800A0800F200721C4A2F4B2F602F9D
:101E9600831603134C08840083174D1C83130130EB
:101EA600F0004F080739013E5A2F0310F00DFF3E90
:101EB600031D582F70088004752F831603134C08D2
:101EC600840083174D1C83130130F0004F08073937
:101ED600013E6F2F0310F00DFF3E031D6D2F70089E
:101EE600FF3A8005F21C782F792F8F2F4C0884003B
:101EF60083174D1C83130130F0004F0CF100F10CD9
:101F0600710C0739013E892F0310F00DFF3E031DAA
:101F1600872F70088004A52F4C08840083174D1C5A
:101F260083130130F0004F0CF100F10C710C0739EE
:101F3600013E9F2F0310F00DFF3E031D9D2F7008DD
:101F4600FF3A8005721DA82FA92FBC2F4C088400CC
:101F560083174D1C83130130F00050080739013EEA
:101F6600B62F0310F00DFF3E031DB42F700880043A
:101F7600CF2F4C08840083174D1C83130130F000CB
:101F860050080739013EC92F0310F00DFF3E031D0F
:101F9600C72F7008FF3A8005F21DD22FD32FE92FE5
:101FA6004C08840083174D1C83130130F000500C3D
:101FB600F100F10C710C0739013EE32F0310F00D0F
:101FC600FF3E031DE12F70088004FF2F4C0884009C
:101FD60083174D1C83130130F000500CF100F10CF7
:101FE600710C0739013EF92F0310F00DFF3E031D5A
:0A1FF600F72F7008FF3A800508007D
:04400E00F22FFF3F4F
:00000001FF
