:060000000A128A11FC2F18
:100F7400F000700883120313950008008312031312
:100F84008C1EC52FC62FC02F1A0808008316031302
:100F94000711FF3092000C308312031397000730BF
:100FA4009200950108008316031387170713333043
:100FB40099001815181283120313981718160800AD
:100FC4000A128A11D5270A128A110A128A11C8270D
:100FD4000A128A110A128A11C0270A128A11F10010
:100FE40071080A128A11BA270A128A11EC2F0A12FE
:0C0FF4008A11002883010A128A11E22FE2
:04400E00F22FFF3F4F
:00000001FF
