:060000000A128A11FC2F18
:100F26008030831603139F000130831203139F0042
:100F36000800F000831203130C1EA22FA32F9D2F6F
:100F460070089900080083160313071387173330B8
:100F56009900181518128312031398178316031392
:100F6600981608000D30F200F20BB72F8312031308
:100F76009F149F18BF2FC02FBC2F1E08F100831689
:100F860003131E08F00008000A128A1193270A129A
:100F96008A110A128A11A6270A128A1183160313C6
:100FA60005140A128A11B5270A128A117108F60069
:100FB6007008F5007608F4007508F3000310F40CC9
:100FC600F30C0310F40CF30C7308F70077080A12FD
:100FD6008A119C270A128A111A30F400F830F3009D
:100FE600F30BF32FF40BF32F0000D42F0A128A1100
:0A0FF600002883010A128A11C72F98
:04400E00F22FFF3F4F
:00000001FF
