:060000000A128A110C280F
:10000800FE00030EF1000A08F2000A128A116328A2
:100018000A128A110F28F90183120313A40183011C
:100028000A128A1117280A128A11C1200A128A1183
:100038000A128A11CF200A128A110A128A11AF20D5
:100048000A128A1100300A128A118D200A128A11A6
:10005800740883120313A1007308A00001300A1268
:100068008A118D200A128A11740883120313A300BF
:100078007308A2002108F8002008F7000310F80C04
:10008800F70C0310F80CF70C770895002308F80014
:100098002208F7000310F80CF70C0310F80CF70C03
:1000A8007708A4000D30F800FB30F700F70B5A284A
:1000B800F80B5A285F2826280A128A110C280B1DCB
:1000C8006628672886280B11803083120313810065
:1000D8000130F90740307902031C73287428752809
:1000E800F9012408F00002300310F00CFF3E031D54
:1000F800782870087902031882288328852808142C
:100108008628081072088A00710E8300FE0E7E0E83
:100118000900F600C330831203139F057608F50023
:1001280001300310F50DFF3E031D95280310750DD2
:100138009F040D30F500F50B9F28831203139F14BD
:100148009F18A728A828A4281E08F40083160313BC
:100158001E08F30008008316031308108312031304
:10016800081083160313811281158030831203133C
:1001780081000B118B168B170800033083160317A9
:10018800880089018030831603139F000130831291
:1001980003139F000800831603130711FF30920012
:1001A8000C30831203139700950104309200080065
:04400E00F22FFF3F4F
:00000001FF
