:060000000A128A11FC2F18
:100F1200831603130711F93092000C308312031366
:100F220097000530920008000130831603178800ED
:100F320089018316031305140130831203139F00E2
:100F42008030831603139F0008000D30F200F20B6D
:100F5200A82F831203139F149F18B02FB12FAD2F08
:100F62001E08F100831603131E08F0000800831602
:100F720003130610861006158615811383120313B8
:100F8200061086100A128A1189270A128A110A1279
:100F92008A1195270A128A110A128A11A6270A12A1
:100FA2008A117008F3007108F4000310F40CF30CBA
:100FB2000310F40CF30C7308831203139500061943
:100FC200E32FE42FEB2F861DE72FE82FEB2F0614DC
:100FD2008610CD2F8619EE2FEF2FF62F061DF22F3A
:100FE200F32FF62F06108614CD2F06108610CD2F64
:0E0FF2000A128A11002883010A128A11B82FF0
:04400E00F22FFF3F4F
:00000001FF
