:100000000A128A11CD2FFF1B0D2883137F18831727
:100010000008840A0319FF0A080000308A00040857
:10002000840A8207003456346F346C34743461347B
:100030006A3465343A3420340034253475342E342F
:0600400025347534003484
:100268000800073400341A342C343E34640080010A
:10027800840A04060319003404063B290130831656
:10028800031788008130831203139F008030831680
:1002980003139F0008000330F200F20B5129831268
:1002A80003139F149F1859295A2956291E08F1002B
:1002B800831603131E08F00008003230831203135C
:1002C800B7003008B8000030B900BA01BB01C1015D
:1002D800C2013830AC000030AD003108AE00373014
:1002E800AF000A128A1184210A128A118312031399
:1002F8003A083007B60036088400831380010800E6
:10030800831203132E08FD009829831203132C0867
:10031800A0002D08A1007D30A2002F08A3000A121A
:100328008A112E260A128A117D0884000A128A115F
:100338000D200A128A11003A031DA329A42989292C
:1003480083120313AC01AD0108007008710403198E
:10035800AE29AF29DC290130F400BB290130031094
:10036800F00DF10DFF3E031DB3290130F407F11F15
:10037800BE29BF29B22971087302031DC529700857
:100388007202031CC829C929CF297008F202710812
:10039800031CF303F30201300310F10CF00CFF3ED1
:1003A800031DD0290130F402031DDB29DC29BF29F4
:1003B8007308F1007208F0000800FB01FC01062A2E
:1003C8007B087607F9007708F8000318F80AFB1F7E
:1003D800EE29F8037808FA007A0883120313FF005D
:1003E800790884000A128A1103200A128A110A1253
:1003F8008A1100230A128A110130FB070318FC0A2C
:100408000030FC077B087607F9007708F800031826
:10041800F80AFB1F102AF8037808FA007A088312F2
:100428000313FF00790884000A128A1103200A12B4
:100438008A11003A031D212A222AE4290800F4011E
:10044800F5017008710403192A2A2B2A602A013041
:10045800F600372A01300310F00DF10DFF3E031DA1
:100468002F2A0130F607F11F3A2A3B2A2E2A01309B
:100478000310F40DF50DFF3E031D3C2A71087302AD
:10048800031D482A70087202031C4B2A4C2A532A5F
:100498007008F2027108031CF303F30274140130AC
:1004A8000310F10CF00CFF3E031D542A0130F60234
:1004B800031D5F2A602A3B2A7508F1007408F000C2
:1004C80008000030FC000030FB000030FA0000306B
:1004D800F900701C702A712A882A7408F9077508AF
:1004E80003110318013E03197A2AFA077608031143
:1004F8000318013E0319812AFB0777080311031823
:10050800013E0319882AFC070130F8000310F40D96
:10051800F50DF60DF70DF80B8A2A01300310F30CD0
:10052800F20CF10CF00CFF3E031D922A73087204C2
:1005380071047004031DA12AA22A6D2A7C08F30005
:100548007B08F2007A08F1007908F0000800F5004D
:10055800831203135D08840083175E1C8313013024
:10056800F3005F080739013EBB2A0310F30DFF3E75
:10057800031DB92A7308FF3A800575080A128A1103
:1005880074250A128A11831203135D0884008317E5
:100598005E1C83130130F3005F0CF400F40C740C40
:1005A8000739013ED92A0310F30DFF3E031DD72A50
:1005B800730880040B30F4006230F300F30BE22A76
:1005C800F40BE22A0000831203135D0884008317EA
:1005D8005E1C83130130F3005F0CF400F40C740C00
:1005E8000739013EF92A0310F30DFF3E031DF72AD0
:1005F8007308FF3A80050800F500831203135D08AD
:10060800840083175E1C83130130F3005F080739E9
:10061800013E102B0310F30DFF3E031D0E2B730834
:1006280080047508F30004300310F30CFF3E031D2B
:10063800182B73080F390A128A1174250A128A11A5
:10064800831203135D08840083175E1C8313013033
:10065800F3005F0CF400F40C740C0739013E362BE0
:100668000310F30DFF3E031D342B730880041A306A
:10067800F300F30B3D2B0000831203135D08840085
:1006880083175E1C83130130F3005F0CF400F40C35
:10069800740C0739013E522B0310F30DFF3E031D66
:1006A800502B7308FF3A800575080F390A128A1112
:1006B80074250A128A11831203135D0884008317B4
:1006C8005E1C83130130F3005F0CF400F40C740C0F
:1006D8000739013E712B0310F30DFF3E031D6F2BED
:1006E800730880041A30F300F30B782B0000831290
:1006F80003135D08840083175E1C83130130F30025
:100708005F0CF400F40C740C0739013E8D2B0310B8
:10071800F30DFF3E031D8B2B7308FF3A800508007D
:1007280083120313A901A31F9A2B9B2BA82BA009A3
:10073800A109A209A309A00A0319A10A0319A20A77
:100748000319A30A0130A900A71FAB2BAC2BB92BA7
:10075800A409A509A609A709A40A0319A50A031942
:10076800A60A0319A70A0130A9060030AD00003017
:10077800AC000030AB000030AA002308220421049A
:1007880020040319C82BC92B142C0130A800D72B1F
:100798000130FD000310A00DA10DA20DA30DFD0B4E
:1007A800CE2B0130A807A31FDA2BDB2BCC2B013073
:1007B800FD000310AA0DAB0DAC0DAD0DFD0BDD2B2F
:1007C80023082702031DF22B22082602031DF22B01
:1007D80021082502031DF22B20082402031CF52BF7
:1007E800F62B052C2008A4022108031C210FA502C2
:1007F8002208031C220FA6022308031C230FA702AA
:100808002A1401300310A30CA20CA10CA00CFF3E6B
:10081800031D062C0130A802031D132C142CDB2BFE
:1008280029080319182C192C242CAA09AB09AC097E
:10083800AD09AA0A0319AB0A0319AC0A0319AD0AD0
:100848002D08A3002C08A2002B08A1002A08A0004C
:100858000800720873040319322C332C392C7208DF
:100868007304031D382C392C402C70080A128A1185
:1008780034210A128A11C62C7208093EF400730842
:100888000318013E003EF500740884008317751CA8
:1008980083130008F600840A0008F7007608770436
:1008A8000319572C582C8A2C7208093EF400730837
:1008B8000318013E003EF500740884008317751C78
:1008C80083130008F600840A0008F7007208023E45
:1008D800F80073080318013E003EF9007808840008
:1008E8008317791C83130008FA00840A0008FB00A8
:1008F8007B08803AFC007708803A7C02031D862C2E
:1009080076087A020318892C8A2CC62C720884006F
:100918008317731C83130008F400840A0008F50089
:100928007208023EF60073080318013E003EF70005
:10093800760884008317771C831300087407F9006E
:100948007508F8000318F80A801FAB2CF80378081C
:10095800FA007908840083177A1C831370088000D2
:100968007208023EF40073080318013E003EF500C9
:10097800740884008317751C831301308007840A68
:100988000318800A08005D3084007608831380000D
:10099800840A77088000840A78088000840A790825
:1009A8008000840A7A0880000030831203135E06F0
:1009B800031DE02C05305D06031DE32CE42CE82C18
:1009C800831603138501032D00305E06031DEE2CEC
:1009D80006305D06031DF12CF22CF62C831603134A
:1009E8008601032D00305E06031DFC2C07305D06D2
:1009F800031DFF2C002D732D83160313870134303C
:100A0800FC00F130FB00FB0B072DFC0B072D0C2D18
:100A180003300A128A11AB220A128A110D30FC0027
:100A2800FB30FB00FB0B162DFC0B162D1B2D03308A
:100A38000A128A11AB220A128A112A30FC008D3060
:100A4800FB00FB0B252DFC0B252D2A2D03300A124C
:100A58008A11AB220A128A1102300A128A11AB22B9
:100A68000A128A1102300A128A11AB220A128A115A
:100A780008300A128A11AB220A128A1100300A12AF
:100A88008A11AB220A128A1106300A128A11AB2285
:100A98000A128A110830FD007D157D08FB0004301C
:100AA8000310FB0CFF3E031D542D7B080F390A125F
:100AB8008A11AB220A128A117D080F390A128A118B
:100AC800AB220A128A1100300A128A11AB220A12CA
:100AD8008A1101300A128A11AB220A128A110800FF
:100AE800F200721C782D792D8E2D831203135D0868
:100AF800840083175E1C83130130F00060080739F7
:100B0800013E882D0310F00DFF3E031D862D700851
:100B18008004A32D831203135D08840083175E1CD1
:100B280083130130F00060080739013E9D2D031042
:100B3800F00DFF3E031D9B2D7008FF3A8005F21C47
:100B4800A62DA72DBD2D5D08840083175E1C831379
:100B58000130F000600CF100F10C710C0739013E16
:100B6800B72D0310F00DFF3E031DB52D700880044E
:100B7800D32D5D08840083175E1C83130130F000B9
:100B8800600CF100F10C710C0739013ECD2D0310FA
:100B9800F00DFF3E031DCB2D7008FF3A8005721D36
:100BA800D62DD72DEA2D5D08840083175E1C83138C
:100BB8000130F00061080739013EE42D0310F00D03
:100BC800FF3E031DE22D70088004FD2D5D088400A2
:100BD80083175E1C83130130F00061080739013E5A
:100BE800F72D0310F00DFF3E031DF52D7008FF3A99
:100BF8008005F21D002E012E172E5D088400831734
:100C08005E1C83130130F000610CF100F10C710CD3
:100C18000739013E112E0310F00DFF3E031D0F2E64
:100C2800700880042D2E5D08840083175E1C8313D2
:100C38000130F000610CF100F10C710C0739013E34
:100C4800272E0310F00DFF3E031D252E7008FF3AD6
:100C5800800508008312031322088400000884001A
:100C68000A128A110D200A128A11253A031D3D2EF7
:100C78003E2ED82E2208840001308007E201E301CD
:100C88000030E600FF30E400FF30E5002208840071
:100C98000008AA002A0884000A128A110D200A12E4
:100CA8008A11753A031D592E5A2ED12E2308840015
:100CB80083130008A4000230800724088400000879
:100CC800A600840A0008A700220884002A08013E1A
:100CD8008000C62E2030AB000130AB022B08A03EAE
:100CE80084000A30F0000030F1002708F3002608DD
:100CF800F2000A128A11A9210A128A117008303EDC
:100D0800831380000A30F0000030F10083120313CF
:100D18002708F3002608F2000A128A1123220A1271
:100D28008A11710883120313A7007008A600260809
:100D380027040319A02EA12EBF2E2B08031DA52EB4
:100D4800A62E702EBF2E2B08A03E84008313000809
:100D5800A400A5012408F0002508F1002008F200ED
:100D68002108F3000A128A112D240A128A1101306F
:100D780083120313AB0720302B06031DC42EC52E88
:100D8800A72EF12E2A0884000A128A110D200A12B1
:100D98008A11753A03196E2ED12E83120313220875
:100DA800840001308007F12E2208840000088400A6
:100DB8000A128A110D200A128A11A400A50124081A
:100DC800F0002508F1002008F2002108F3000A12BB
:100DD8008A112D240A128A11D12E08000A128A11AA
:100DE80042210A128A1150308400831203136708C3
:100DF80083138000840A68088000840A69088000D8
:100E0800840A6A088000840A6B08800076308400AF
:100E180050088000840A51088000840A5208800023
:100E2800840A53088000840A540880000A128A1130
:100E3800C7240A128A1100300A128A11AB220A1238
:100E48008A1101300A128A11AB220A128A1108305B
:100E58000A128A11AB220A128A1100300A128A1168
:100E6800AB220A128A110130F6008030F7000A120C
:100E78008A11E1210A128A1108300A128A11AB225A
:100E88000A128A1109300A128A11AB220A128A112F
:100E98000A128A114F210A128A1171088312031348
:100EA800D6007008D5000030A3000030A20003303F
:100EB800A100FF30A0005508F0005608F100F2012B
:100EC800F3010030F7000030F600C330F500503071
:100ED800F4000A128A1165220A128A117308831211
:100EE8000313A7007208A6007108A5007008A400E3
:100EF8000A128A1194230A128A11831203132108F1
:100F0800DC002008DB001030F0002730F1005C081E
:100F1800F3005B08F2000A128A1123220A128A11CE
:100F2800710883120313D8007008D70010305B05CE
:100F3800D90027305C05DA004630B0000B30B1002C
:100F48005808B3005708B2005A08B5005908B40049
:100F58000A128A1161210A128A114630F6000030FD
:100F6800F7000A128A11E1210A128A11033083124A
:100F78000313C5000830C4007630C300C30BC22F6A
:100F8800C40BC22FC50BC22F00001F2F0A128A11D3
:100F980000280A128A1135210A128A11E7000A125A
:100FA8008A1136210A128A11E8000A128A11372199
:100FB8000A128A11E9000A128A1138210A128A11C2
:100FC800EA000A128A1139210A128A11EB008313E6
:100FD800A0308400C0300A128A113A210A128A11FC
:100FE8005D30840067300A128A113A210A128A1188
:080FF80083010A128A11F22E96
:04400E00F22FFF3F4F
:00000001FF
